:020000040800F2
:20000000F850002099010008A1010008A3010008A5010008A7010008A90100080000000070
:20002000000000000000000000000000AB010008AD01000800000000AF010008811B0008FA
:20004000B3010008B3010008B3010008B3010008B3010008B3010008B3010008B3010008C0
:20006000B3010008B3010008B3010008B3010008B3010008B3010008B3010008B3010008A0
:20008000B3010008B3010008B3010008B3010008B3010008B3010008B3010008B301000880
:2000A000B3010008B3010008B3010008B3010008B3010008B3010008B3010008B301000860
:2000C000B3010008B3010008B3010008B3010008B3010008B3010008B3010008291C0008AF
:2000E000B3010008B3010008B3010008B3010008B3010008B3010008B3010008B301000820
:20010000B3010008B3010008B3010008B3010008B3010008B3010008B3010008B3010008FF
:20012000B3010008B3010008B3010008B3010008B3010008B3010008B3010008B3010008DF
:20014000B3010008B3010008B3010008B3010008B3010008B3010008B3010008B3010008BF
:20016000B3010008B3010008B3010008B3010008B3010008B3010008B3010008B30100089F
:20018000B3010008DFF80CD000F018F90048004791360008F850002006488047064800477F
:2001A000FEE7FEE7FEE7FEE7FEE7FEE7FEE7FEE7FEE7FEE7D91B00088501000800487047C4
:2001C000743E000840EA01039B0703D009E008C9121F08C0042AFAD203E011F8013B00F8F5
:2001E000013B521EF9D2704710B5044604E00B7800F8013B03B1491C521EF8D2204610BDA1
:2002000030B504460020034600E05B1C934203D2E05CCD5C401BF8D030BD034611F8012B52
:2002200000F8012B002AF9D11846704710B54843044603F085FA002805D00021002C02D069
:20024000641E0155FAE710BD2DE9F05F93460F4680460446002601F09DFED0F800908246A3
:2002600014F8015B2DB1FFF7A9FF0068405DC007F6D12B2D02D02D2D1AD0641E0021CAF834
:2002800000105A463946204600F048F8014627B13868A04201D1C7F80080DAF800000228EB
:2002A00009D0CAF80090700505D54842BDE8F09F46F48066E2E70846F8E72DE9F05F054640
:2002C000002092469B4688460646814640241BE0284641464746224600F091F853465A4669
:2002E000C01A914110D311461846224600F078F82D1A67EB01084F4622460120002100F021
:200300006FF817EB00094E41201EA4F10104DFDC484631462A464346BDE8F09F2DE9F05FB2
:2003200082460078002715468B460AF10104B946302801D09DB113E014F8010B01277828E1
:2003400003D0582801D045B10AE00DB1102D07D10027102514F8010B02E0082500E00A2534
:200360000026B0460EE005FB080005FB06F1012701EB10461FFA80F8B6F5803F00D3B9463D
:2003800014F8010B294600F04AF80028EBDABBF1000F05D00FB1641E00E05446CBF8004068
:2003A000B9F1000F06D001F0F5FD02210160C81EBDE8F09F48EA0640FAE70000064C074D2E
:2003C00006E0E06840F0010394E8070098471034AC42F6D3FFF7DAFE783E0008983E0008F4
:2003E000202A04DB203A00FA02F1002070479140C2F1200320FA03F3194390407047202AD2
:2004000004DB203A21FA02F00021704721FA02F3D040C2F1200291400843194670473A2835
:2004200000D2303820F02002412A01D3A2F13700884201D34FF0FF307047000010B500209F
:2004400000F09CFE01F0A4FB00F040FF074908600749086007A001F021FD00200B49086051
:200460000B490C4800F0D9F910BD000068000020640000200D313E455241534520323E536A
:2004800049474E20333E52554E0D0A00000000200C0000200068004010B504460B488442C5
:2004A00009D10121480601F021FA00214FF0007001F01CFA08E00121880601F017FA002154
:2004C0004FF0806001F012FA10BD00000064004010B50021837A012202FA03F13D4A126898
:2004E00042F001023B4B1A603A4A1C3212688A43384B1C331A60027BCAB9364A0C3212682A
:200500008A43344B0C331A604288C38842EA0343304A4032847A42F834300288838842EA06
:2005200003432C4A4032847A02EBC4025360027B012A19D1274A0C3212680A43254B0C3372
:200540001A604288038842EA0343224A4032847A42F83430C288838842EA03431D4A403240
:20056000847A02EBC4025360C27A3AB9194A121D12688A43174B1B1D1A6006E0154A121D87
:2005800012680A43134B1B1D1A60028932B9114A143212688A430F4B14331A600289012A55
:2005A00006D10C4A143212680A430A4B14331A60427B012A06D1074A1C3212680A43054B76
:2005C0001C331A60034A126822F00102014B1A6010BD00000066004030B5024600200023CD
:2005E000146824F002041460146844F00104146000E05B1C546804F001041CB94FF6FF742F
:20060000A342F6D1546804F001040CB900206CE08C79012C04D1146844F08004146003E0B6
:20062000146824F080041460CC79012C04D1146844F04004146003E0146824F04004146058
:200640000C7A012C04D1146844F02004146003E0146824F0200414604C7A012C04D114687B
:2006600044F01004146003E0146824F0100414608C7A012C04D1146844F00804146003E0A8
:20068000146824F008041460CC7A012C04D1146844F00404146003E0146824F004041460E7
:2006A0008C78A407CD7844EA05640D7944EA05444D7944EA05540D886D1E2C43D461146825
:2006C00024F001041460002300E05B1C546804F001041CB14FF6FF74A342F6D1546804F07D
:2006E00001040CB1002000E0012030BD0246002019B9D36803F0030006E0012903D113695F
:2007000003F0030000E00020704710B500F5D87303EB01131B6803F004031372137A53B98A
:2007200000F5D87303EB01131B6840F2FF7404EA5353136009E000F5D87303EB01131B689A
:200740006FF0604404EAD303536000F5D87303EB01131B6803F00203537200F5D87303EB6F
:2007600001135B6803F00F03937200F5D87303EB01135B681B0AD37400F5D87303EB0113E5
:200780009B68D37200F5D87303EB01139B681C0A147300F5D87303EB01139B681C0C5473EB
:2007A00000F5D87303EB01139B681B0E937300F5D87303EB0113DB68D37300F5D87303EBCC
:2007C0000113DB681C0A147400F5D87303EB0113DB681C0C547400F5D87303EB0113DB681A
:2007E0001B0E937421B9C36843F02003C36003E0036943F02003036110BD00218171C17130
:20080000017241728172C1728170C170032101710221417101210180704710B50246002078
:20082000936803F08063B3F1806F00D110E0936803F00063B3F1006F01D1012008E0936859
:2008400003F08053B3F1805F01D1022000E00420042874D002F5C07303EB00131B6803F046
:20086000010402F5C07303EB00131C600B7A7BB94B7A0C8843EA445302F5C07404EB0014C8
:200880002468234302F5C07404EB0014236010E00B7A4C6843EAC4034C7A234302F5C07441
:2008A00004EB00142468234302F5C07404EB001423608B7A03F00F038B7202F5C07303EB73
:2008C00000135B6823F00F0402F5C07303EB00135C6002F5C07303EB00135B688C7A2343DB
:2008E00002F5C07404EB001463608B7B1C064B7B44EA03440B7B44EA0323CC7A234302F527
:20090000C07404EB0014A3608B7C1C064B7C44EA03440B7C44EA0323CC7B234302F5C07485
:2009200004EB0014E36002F5C07303EB00131B6843F0010402F5C07303EB00131C6010BD17
:2009400010B502460B46002100BF04E052F82100034C2060491C9942F8D30148006810BDB2
:200960000030024001200149886070470030024070B504460D4609480460042007498872A4
:200980000846C0F80B5002E005480068804703490448FFF742FF0428F6D070BD0C0000207E
:2009A00020000020006800402DE9F84304460827DFF8E88014B93A48009000E0009400985B
:2009C00000F09AFB10B10020BDE8F8830221684602F02AFF05460421684602F025FF3149F7
:2009E000098800EB01460221684602F01DFF062850D2DFE800F00345464F47482A488642A8
:200A000001DA0020E0E7A22024490B390860C8F80060042088721CB9084600F069FD07E09B
:200A200000BF1E490B392148FFF7F7FE0428F8D0A3201A490B39086000271CE0022168463E
:200A400002F0F2FEC2B238467F1C14490A54082F00D085B911490B398F7200271CB908463E
:200A600000F046FD07E000BF0C490B390F48FFF7D4FE0428F8D0281EA5F10105DED109E077
:200A800008E007E000BF0421684602F0CDFE0549086000BF00BF4FF0FF3095E717000020E3
:200AA0007800002038000020008000080068004021B1026842F00102026003E0026822F0E4
:200AC000010202607047000010B590B0044601A800F02AF90121880500F0E8FE244800F00E
:200AE0004BF84FF0006001902248029060680068039040200490002005900A904FF400300E
:200B00000B90002006904FF4806007900020089009900E900F9001A9154800F0D9F8012152
:200B20001348FFF7C5FF1248783800F025F84FF0006001900F4802902068006803900020CD
:200B400004904FF40070059040100A9001A90848783800F0BDF8012105487838FFF7A8FFC4
:200B60000122C0210348001F01F0C5F810B010BDB864024004100140016821F0010101603C
:200B80000021016041608160C1600161212141614A49884204D13D21484A103A91608CE021
:200BA00046491831884205D14FF47461434A103A916082E041493031884205D14FF4741128
:200BC0003E4A103A916078E03C494831884205D14FF07461394A103A91606EE0374960312B
:200BE000884204D13649354A103AD16065E033497831884204D13349304A103AD1605CE027
:200C00002E499031884204D12F492C4A103AD16053E02A49A831884205D14FF03D51274A37
:200C2000103AD16049E02949884204D13D21274A083A116041E025491831884205D14FF4C2
:200C40007461224A083A116037E020493031884205D14FF474111D4A083A11602DE01B49CC
:200C60004831884205D14FF07461184A083A116023E016496031884204D11149134A121FB8
:200C800011601AE011497831884204D10D490F4A121F116011E00D499031884204D10A49FC
:200CA0000A4A121F116008E00849A831884204D14FF03D51054A121F116070471060024066
:200CC0003D000020400F002000003D201064024010B500220268134B1A40CC680B6823431F
:200CE0004C6923438C692343CC6923430C6A23434C6A23438C6A23434C6B23438C6B234315
:200D00001A430260426922F00702D1E90B3423431A4342610B6943604B6883608B68C3602C
:200D200010BD00003F801CF00021016041608160C160016141618161C16101624162816205
:200D4000C1620163416381637047000001490860704700000C3C024070B504460A460026F5
:200D6000082502B909E0012A01D1160205E0022A01D1160201E04FF4407600F08FF80546F6
:200D8000082D28D11548006820F440701349086008460068304308600846006820F0F80089
:200DA00008600846006844F0020108430B4908600846006840F48030086000F06FF8054633
:200DC0000648006820F00200044908600846006820F0F8000860284670BD0000103C024047
:200DE00008201049096801F48031B1F5803F01D1012015E00B49096801F0100109B1052068
:200E00000EE00849096801F0EF0109B1062007E00449096801F0020109B1072000E00820DF
:200E2000704700000C3C024030B502460C46082500F034F80546082D19D10E48006820F46D
:200E400040700C4908600846006840F4007008600846006840F001000860146000F01EF89A
:200E600005460448006820F0010002490860284630BD0000103C02400548006800F00040E1
:200E800028B1044802490C390860034808607047103C024023016745AB89EFCD08B5082098
:200EA0000090FFF79DFF009002E0FFF799FF00909DF800000128F8D09DF8000008BD0000A0
:200EC00010B5ADF5996DA8A9002002F065F900282ED101221BA121A802F074F940BB002497
:200EE00007E000F0B6FF082101EBC40000F034F8641C052CF5DB0FE000F0ABFF21AA8021FB
:200F000001A802F021F93F220DF105011148FFF76BF90020FFF748FDDDE92301884201D123
:200F2000012000E000200028E6D0002001F028FE21A802F0FEF80021084602F02DF90DF541
:200F4000996D10BD50666D364374726C2E686578000000007800002070B50446ACB1082CC5
:200F600013D0102C11D0182C0FD0202C0DD0282C0BD0302C09D0382C07D0402C05D0482CD1
:200F800003D0502C01D0582C00D114B94FF0FF3070BDFFF771FFF320FFF7D8FE00BF02214D
:200FA0002046FFF7D9FE0546012DF8D0082D01D10020EDE72846EBE773B50546042201A93F
:200FC0002846FFF71DF908B900207CBD0C48854202D24FF0FF30F8E7FFF74EFFF320FFF7F5
:200FE000B5FE00BF28460199FFF71EFF0446012CF8D0082C01D10020E7E72046E5E70000FF
:20100000E47F0008F0B50A4600210023002400BF3DE0012505FA01F3156805EA03049C42C2
:2010200034D105684F000326BE40B543056015794E00B5400668354305601579012D02D0C1
:201040001579022D16D185684F000326BE40B543856055794E00B5408668354385604568A3
:2010600001268E40B5434560456896798E40B6B235434560C5684F000326BE40B543C5600F
:20108000D5794E00B540C6683543C560491C1029BFD3F0BDF0B5002300244D07ED0E02FAE0
:2010A00005F3CE1000F1200555F826504E07F70E0F26BE40B543CF1000F1200646F8275051
:2010C000CE1000F1200555F8265045EA0304CE1000F1200545F82640F0BD018370474FF65F
:2010E000FF7101600021017141718171C171704742694A404261704731B50221684602F0C7
:2011000093FB05462C4604E00221684602F08CFB044428466D1E10F1050FF5DCE0B238BDA8
:201120004CF6CC4001490860704700000030004001460020034AD2680A400AB1012000E094
:2011400000207047003000404AF6AA200149086070470000003000400149486070470000BC
:201160000030004001498860704700000030004001490860704700000030004010B58AB0CE
:20118000044601A8FFF7ABFF02208DF8080001208DF80B002020019001A94A48FFF732FF28
:2011A00001208DF80A004003019001A94548FFF729FF092205214348FFF76CFF09220D21C0
:2011C0004048FFF767FF0121480600F07FFB0121880600F07BFB07A8FFF70FFB3A48FFF714
:2011E0005BF900208DF8220001208DF8230000208DF824008DF825008DF8260001208DF847
:20120000270014B18DF81E0002E000208DF81E0003208DF81F0009208DF8200003208DF85D
:2012200021000420ADF81C0007A92748FFF7D4F901208DF817008DF818000020ADF8120095
:20124000ADF80E0001208DF819000020ADF814004FF4A350ADF80C004FF4A250ADF8100072
:201260000E208DF8160003A8FFF732F94FF4A050ADF80C004FF4A150ADF810000F208DF858
:20128000160003A8FFF724F94FF4A450ADF80C004FF4A550ADF8100010208DF8160003A82F
:2012A000FFF716F94FF4A650ADF80C004FF4A750ADF8100011208DF8160003A8FFF708F9E2
:2012C0000AB010BD000402400068004000B589B04FF40071084600F065FF544908605448B4
:2012E00009680861534851490968C8600121102000F00CFB0121084600F0D8FA07A8FFF726
:20130000EEFE02208DF8200000208DF8220001208DF823004FF4C060079007A94648FFF75C
:2013200071FE072209214448FFF7B4FE07220A214148FFF7AFFE3D480068FFF7C5FB002074
:20134000ADF81400ADF816004FF40070ADF818000020ADF81A0005A9384800F0B0FC4FF4BD
:20136000612001900020ADF80800ADF80A00ADF80C00ADF810000C20ADF80E0001A92F4879
:2013800000F0F4FC01212D4800F0A9FC4FF40071084600F007FF2A4908602A480968086122
:2013A0000121042000F082FA0121880400F08EFA4FF44060079007A92348FFF723FE072280
:2013C0000A212148FFF766FE07220B211E48FFF761FE05A91D4800F072FC4FF46140019029
:2013E00001A91A4800F0C2FC012240F22551174800F097FC4FF4C06000F066F801208DF82F
:20140000010003208DF8020001208DF8030027208DF80000684600F01BF801210B4800F096
:201420005EFC0248006809B000BD00003C00002015200008BD1F000800000240001001401A
:2014400040000020AD200008000802400048004070B5002100230F22C4781CB3174C2468F1
:2014600004F4E064C4F5E064C4F30721C1F10404E3B20A4144789C40E1B2847814402143DB
:201480000C07210E0E4C05786155047804F01F050124AC4005786D11AD0005F1E025C5F878
:2014A000004109E0047804F01F050124AC40054D0678761145F8264070BD00000CED00E05D
:2014C00000E400E080E100E002490143024A1160704700000000FA050CED00E0024A0A4096
:2014E0000243024B1A60704780FFFF1F08ED00E070B586B005464FF0FF362DB1142229461A
:2015000001A8FEF75FFE10E000216C48FFF7EEF810B9304606B070BD01AA00216748FFF79C
:20152000F4F804216648FFF7E3FD0198A03808287ED2DFE800F00456101FA006659A00F050
:2015400009FD9DF80F0001F01BFB064615B9304600F08AFA94E0DDF80F005A490860084625
:20156000006859490968884203DA564800685649086085E09DF80E4006E052480068015DAE
:201580000DF10F000155641C082CF6DBDDF80F104C480068FFF710FD06464A480068001D0D
:2015A0004849086049480068401C484908609DF80E00042806DDDDF8131042480068FFF752
:2015C000FBFC06433F480068001D3E4908603F480068401C3D49086015B9304600F044FA25
:2015E0004EE000203949086000F033FCDDF80F00FFF7B2FC064615B9304600F035FA3FE03E
:2016000000240CE00DF10F00005D3149314A12688854641C2F480068401C2E4908609DF8D6
:201620000E00A04203DD2B4800688028EADB00E025E028480068401E2549085C78B125480F
:201640000068401E085C0D2809D022480068401E085C0A2803D01F480068802804D100204D
:201660001C490860FFF7A0F90AE0002615B9002000F0FAF904E09DF80F6001AD00E000BFF8
:2016800000BFCDB1701CB8B113490968491C124A08461160C91700EBD1614911A0EB411197
:2016A00011B90EA000F0FAFB1EB10DA000F0F6FB02E00CA000F0F2FB30462BE700680040D5
:2016C000000C02402C00002004000020000000207800002030000020340000200D0A0000D9
:2016E0003F0000002D000000F8B5544801F0BEFF322847D008DC19280FD01A282BD01B2892
:2017000078D0312874D128E0332845D039283ED03A287CD03F28F5D143E000BF00BF00BFC1
:2017200000BF00BFBFF34F8F00BF00BF00BF4448006800F4E06043490843001D4049086051
:2017400000BF00BF00BFBFF34F8F00BF00BF00BF00BF00BFFDE700BFFEE700260FE008203C
:2017600000EBC601A120FFF703F9002503E03648006880476D1CB5F57A7FF8DB761C052E8B
:20178000EDDB58E00021A520FFF7F2F853E00921A520FFF7EDF84EE00021A020FFF7E8F8A1
:2017A00049E00121080300F081F8FFF7DBF82748274A101A81082548FFF7C2F8074625A3DC
:2017C0000A220121009026A000F068FB20491C312DA000F063FB1E4C002505E054F8011B65
:2017E0002EA000F05BFB6D1C082DF7DB23E001E020E00CE02B48006800F0804010B9012000
:20180000FFF7BCFC0021A720FFF7B2F813E000BF0A4801F02BFF0746002100F017FF0446B5
:20182000002CF5D021462048FEF7F7FC0020FFF7BBF800E000BF00BFF8BD000064000020A0
:201840000CED00E00000FA052000002000000008E47F00084175672032372032303139006B
:201860000D50464D3620626F6F746C6F61646572207625642E253032642025732C203C255A
:201880003038583E0D0A00007369676E617475726520253038583A0D0A0000002530385826
:2018A0000D0A00001C6800407800002029B1064A12680243044B1A6004E0034A1268824393
:2018C000014B1A60704700003038024029B1064A12680243044B1A6004E0034A12688243BF
:2018E000014B1A60704700004038024029B1064A12680243044B1A6004E0034A126882438F
:20190000014B1A60704700002038024029B1064A12680243044B1A6004E0034A126882438E
:20192000014B1A6070470000443802400348006840F0807001490860704700007438024042
:20194000F0B5002100220024022500260223324F3F6807F00C0121B1042905D0082937D1D0
:2019600005E02E4F076036E02D4F076033E02A4F3F1F3F68C7F38056274F3F1F3F6807F012
:201980003F036EB1264FB7FBF3F7DFF88CC0ACF1040CDCF800C0CCF3881C07FB0CF40CE020
:2019A0001E4FB7FBF3F7DFF870C0ACF1040CDCF800C0CCF3881C07FB0CF4174F3F1F3F6806
:2019C000C7F301477F1C7D00B4FBF5F7076002E0124F076000BF00BF0F4F3F6807F0F001D6
:2019E0000909104F7A5C0768D74047600A4F3F6807F4E051890A0B4F7A5C4768D7408760D7
:201A0000054F3F6807F46041490B064F7A5C4768D740C760F0BD0000083802400024F4007C
:201A200000127A004800002010B501460022002300204A11012A02D10A4C236808E0022AF3
:201A400003D1084C7034236802E0064C7434236801F01F02012494401C400CB1012000E0A3
:201A6000002010BD0038024010B5044608210C48FFF73EFB4FF0FF300A490860A4200A4904
:201A8000086001208872CC7202E008480068804705490748FEF7C1FE0428F6D010BD000014
:201AA000000C0240080000200C00002020000020006800400CB50020019000902D480068BD
:201AC00040F480302B49086000BF2A48006800F4003000900198401C0190009818B9019871
:201AE000B0F5A06FF1D12348006800F4003010B10120009001E0002000900098012838D1AC
:201B00001C48083000681B49083108600846006840F4004008600846006840F4A0500860E8
:201B20001548091F0860081F006840F08070091F086000BF0F48006800F000700028F9D0AA
:201B400040F203700D4908600A480830006820F003000849083108600846006840F0020043
:201B6000086000BF03480830006800F00C000828F8D10CBD00380240083C4005003C024014
:201B800002480068401C014908607047240000201FB56846FFF7D4FE4FF47A710198B0FBCE
:201BA000F1F4601EB0F1807F00D30FE0601E4FF0E02148610F214FF0FF3000F0B7F900209B
:201BC0004FF0E02188610720086100BF0321081F00F0ACF91FBD000010B51048006840F01C
:201BE00001000E49086000200C49083108600B4800680B490840094908600A48091D08601E
:201C0000081F006820F48020091F0860002003490C310860FFF74EFF10BD00000038024056
:201C2000FFFFF6FE1030002408B520211A4800F06BF878B1184800F003F9009040F22551EE
:201C4000154800F02DF81549096801220868694600F089FA8021104800F056F8D0B140F2A4
:201C600027710D4800F01CF8002000900B49096801224868694600F05AFA28B1009881B294
:201C8000054800F0E2F805E0002240F22771024800F047F808BD0000004800404000002036
:201CA00010B50022002340F66A14A14200D100BF0A1201249440A3B2DC43048010BD10B554
:201CC00002460020108A20F470600B884C8823438C882343CC8823431843108210BD21B191
:201CE000828942F40052828104E082894DF6FF731A40828170471AB1838A0B43838202E089
:201D0000838A8B438382704702460020B1F5007F00D100BF13880B400BB1012000E000204C
:201D20007047F0B50346002400260025002040F66A17B94200D100BF1846C1F3421401F0D4
:201D40001F06012707FA06F5012C01D10C3004E0022C01D1103000E014301AB107682F430B
:201D6000076002E00768AF430760F0BD2DE9FF4705460E460024A14600BFA046B08900B110
:201D800000BF2C8A24F44054F08804432C82AC8941F20C608443B088318908437189084398
:201DA0000443AC81AC8A24F44074B0890443AC826846FFF7C5FD2048854202D01F4885426A
:201DC00002D1DDF80C9001E0DDF80890A88900F4004040B109EBC90000EB09103168490078
:201DE000B0FBF1F707E009EBC90000EB091031688900B0FBF1F76420B7FBF0F004012009AF
:201E0000642101FB1078A88900F4004040B1322000EBC800B0FBF1F000F00700044308E0AC
:201E2000322000EB08106421B0FBF1F000F00F0004432C81BDE8FF87001001400014014078
:201E400001468888C0F308007047C1F308028280704710B545F25550FFF78AF9FFF774F9C5
:201E60000020FFF785F910BD10B5044645F25550FFF77EF90320FFF76FF9A0B2FFF772F975
:201E800000BF0220FFF754F90028FAD0FFF75CF9FFF746F90020FFF76BF910BD0FB4054B52
:201EA00010B503A9044A029800F09EF910BC5DF814FB0000493500086800002010B51748E0
:201EC00000681749096888421FD0154800681349086008460068642190FBF1F201FB1200D0
:201EE00038B901210F48FFF703F90C210D48FFF7F4F80A4800684FF47A7190FBF1F00A497B
:201F00000968884201D100F025F8FFF7EDFB0020FFF7EEFAFFF79DFF10BD00002800002024
:201F200024000020000C02400800002010B5002804DB0A07130E054A135406E00A07140E1A
:201F4000034A00F00F031B1FD45410BD00E400E018ED00E000BF00BF00BFBFF34F8F00BFCE
:201F600000BF00BF0948006800F4E06008490843001D0649086000BF00BF00BFBFF34F8FB9
:201F800000BF00BF00BF00BF00BFFDE70CED00E00000FA05004870476C00002018B5044628
:201FA0000020009001226946204600F0C0F808B1009818BD4FF0FF30FBE7000038B50446E4
:201FC000002000900B48006838B10A4960690968401A21680844606001E0206860600122E5
:201FE0006946204600F0A3F808B1009838BD4FF0FF30FBE74464024013B50446012201A9E2
:020000040800F2
:20200000204600F0B0F8012801D101981CBD4FF0FF30FBE770B502462248006810B90020DD
:20202000214B18602048006840F2FF13984202D14FF0FF3070BD1B48001F006820F0010065
:20204000184B1B1F186000BF1648001F006800F001000028F8D1134B10681B68124C2468A2
:20206000E31A18440F4B083318600E480068401C0C4B18600C48146805680068401C0A4EB8
:20208000306061554FF07460064BB03B18600548001F006840F00100024B1B1F18600846E1
:2020A000C8E70000BC6402404400002013B5044680210B48FFF728FE28B1019881B2084894
:2020C000FFF7C3FE0AE0012201A9204600F04BF8012240F227710248FFF723FE01981CBD39
:2020E0000048004002E008C8121F08C1002AFAD170477047002001E001C1121F002AFBD15F
:20210000704770B5054618210120FEF78FF804465CB101212846FEF789F8A0606060206025
:202120006561206808B1204670BD0020FCE7F0B503460C460020996825460BE011F801CB76
:202140000646401C05F806C05F691E683E448E4200D11968161EA2F1010202D05E688E42F0
:20216000ECD19960F0BD70B503460C461546224659680FE012F8010B01F8010B5E69186867
:202180003044884200D119689868884202D14FF0FF3070BD281EA5F10105EBD1596012F816
:2021A000010CF6E770B506460D4618210120FEF73DF804468CB10A4820610A48E06030468B
:2021C000FFF79FFF20602846FFF79BFF6060206818B1606808B1204670BD0020FCE70000C5
:2021E000F91F00089D1F00082DE9FF4F8DB00F460546002606E025280BD0DDE90F129047C8
:202200006D1C761C28780028F5D111B03046BDE8F08F0024A246A1460122EC4900E0044348
:2022200015F8013F203B02FA03F00842F7D128782A2810D06FF02F022878A0F130010929FF
:2022400014D80AEB8A0102EB410144F0020400EB010A6D1CF0E701CF5FEA000A03D544F420
:202260000054CAF1000A44F002046D1C28782E2817D115F8010F44F004042A280ED06FF0BC
:202280002F022878A0F1300109290AD809EB890102EB410100EB01096D1CF2E757F8049BA5
:2022A0006D1C28786C280FD006DC4C2817D068280DD06A2814D104E0742810D07A280FD17F
:2022C0000DE044F400140AE044F4801401E044F440146978814202D104F580146D1C6D1C8C
:2022E0002A786E2A1FD00CDC632A31D004DC002A8BD0582A11D1A3E0642A68D0692A0CD1BD
:2023000065E0732A2ED004DC6F2A73D0702A04D19BE0752A6FD0782A6ED01046DDE90F123C
:202320009047761C50E1C4F30250022806D0032809D0042801CF09D0066045E101CFF117BD
:20234000C0E9006140E101CF06803DE106703BE117F8040B8DF8000000208DF80100EB46D2
:20236000012003E057F804BB4FF0FF3061074FF0000102D40DE008F10101884649450FDA32
:202380008045F8DB1BF808100029F4D108E008F1010188468142FADB1BF808100029F6D128
:2023A000DDE90F23AAEB08008146214600F036F9304400EB080604E0DDE90F121BF8010BE4
:2023C0009047B8F10108F7D221464846F7E00A21C4F302534FF0000B0891022B04D001CFF4
:2023E000C117032B09D00AE0FF1D27F00707F7E8020108E032E01FE020E000B2C117042B3F
:2024000001D140B2C117031E71F1000307DA4FF0000CD0EB0C006CEB01012D2302E02305F4
:2024200004D52B238DF82430012303E0E30701D02023F7E7984658E00A2110E010210EE069
:2024400010204FF0000B08900CE010214FF0000B44F004044FF00809089103E008214FF093
:20246000000B0891C4F30253022B04D001CF0021032B06D006E0FF1D27F00707F7E80201AD
:2024800003E080B2042B00D1C0B24FF0000823072BD5702A07D0DDF820C08CF0100C5CEA40
:2024A0000B0C05D00EE040238DF82430012308E050EA010306D030238DF824308DF82520F0
:2024C00002239846DDF820C08CF0080C5CEA0B0C0BD150EA010301D1630706D530238DF84E
:2024E00024304FF00108A9F10109582A04D038A20B9208AA0A920BE03AA2F9E75B46089A97
:20250000FDF7DBFE0B9B9B5C0A9A521E0A92137050EA0102F2D10A98ADEB000000F1200BC8
:20252000600702D524F4803401E04FF00109D94502DDA9EB0B0000E0002000EB0B0141444F
:202540000890AAEB010AE00306D4DDE90F232146504600F063F806444FF0000908E009A91A
:2025600011F80900DDE90F12904709F10109761CC145F4DBE0030CD5DDE90F232146504667
:2025800000F04CF8064404E0DDE90F1230209047761C0899481E08900029F5DC08E00A9816
:2025A0000A990078491C0A91DDE90F129047761CBBF10001ABF1010BF1DC21465046DDE9CB
:2025C0000F2300F019F806446D1C1BE6092801003031323334353637383961626364656660
:2025E0000000000030313233343536373839414243444546000000002DE9F0410446002583
:202600001E461746880404D405E039462020B0476D1C641EF9D52846BDE8F0812DE9F04156
:20262000044600251E469046C80301D5302700E02027880404D505E041463846B0476D1C03
:20264000641EF9D52846BDE8F081000070B505460E462E48006884684CB92C4909680968BC
:202660004869FFF74EFD29490968044688600A2D0DD005DCB5F1FF3F07D0082D1CD10EE093
:202680000D2D03D07F2D17D10AE03BE000BF0020616808702068A0606060206870BD00BFB8
:2026A000D4E90101884206D06068401E606016B117A0FFF7F3FB25E06069401E2168084472
:2026C0006168884204D06268501C6060157005E061680D7016B10FA0FFF7E0FB8EB1FDF773
:2026E0006DFD0068405D00F03E0020B129460AA0FFF7D4FB05E03E232A463C2107A0FFF7DE
:20270000CDFB00BF00BF0020C8E70000640000200820080008000000256300002563253083
:20272000325825630000000070B504460D46607801232A4604F1280100F0C4FC08B10320AF
:2027400070BD94F8261294F8270241EA00204AF65521884201D00220F2E794F86100010648
:2027600094F8600041EA004194F85F0041EA002094F85E10084320F07F400E49884201D1C4
:202780000020DDE794F87D00010694F87C0041EA004194F87B0041EA002094F87A1008431E
:2027A00020F07F400349884201D10020C8E70120C6E7000046415400024600E0521C1078CC
:2027C00010B110788842F9D1107870472DE9F74F88B008980068019001980078A0F1300BD3
:2027E000BBF1090F0AD8019840783A2806D10198801C019008990198086002E09F4890F8F0
:2028000000B0002109980160BBF1020F03D30B200BB0BDE8F08F9A4850F82B400CB90C20C2
:20282000F6E709980460207850B1607800F07EFC0790079800F0010010B900BF0020E7E73E
:202840000020207084F801B0607800F031FC0790079800F0010008B10320D9E700BF002004
:20286000014606902046FFF75FFF054600BF012D21D14FF00009B9F1000F03D0A9F1010028
:2028800000F0FF094FF4DF7000EB091104F128000F18387978B1F87A0106B87A41EA004174
:2028A000787A41EA0020397A0843069020460699FFF73AFF0546032D01D10120A8E70DB158
:2028C0000D20A5E73320015D94F8340041EA0020B0F5007F01D00D209AE73E20015D94F898
:2028E0003F0041EA0028B8F1000F0ED194F84F00010694F84E0041EA004194F84D0041EA83
:20290000002094F84C1040EA0108C4F814803820065DE670012E03D0022E01D00D2077E78D
:2029200008FB06F83520005D0646A07016B1701E304008B10D206BE73920015D94F83A000E
:2029400041EA00202081207A00F00F0008B10D205EE73B20015D94F83C0041EA0020059066
:20296000059870B994F84B00010694F84A0041EA004194F8490041EA002094F84810084322
:2029800005903620015D94F8370041EA00200290029808B90D203BE702984044218900EBF1
:2029A00011100490DDE90401814201D20D202FE7DDE90410401AA178B0FBF1FABAF1000F21
:2029C00001D10D2024E7012540F6F670824500D302254FF6F670824500D303250AF1020000
:2029E00020610499069808442062029906980844A061032D16D1208908B10D2008E794F8A6
:202A00005700010694F8560041EA004194F8550041EA002094F854100843E0612069800059
:202A2000039014E0208908B90D20F1E6A0694044E061022D02D12069400007E0207C00F095
:202A40000100216901EB410100EB510003906169039800F2FF10B1EB502F01D20D20D7E6B0
:202A6000257008480088401C80B206490880E080002060622071E06000BFC9E66200002081
:202A800058000020600000200246891E1069801E884201D8002070479378106A01FB03003A
:202AA000F9E700002DE9F04705460C46207820F04000401E00EB800101EBC00600274FF082
:202AC000010800BF1A48C05D205C1949C95D2144497840EA0129B8F1000F10D0484600F01B
:202AE0009BFC8046FF2E07D23146761C35F8110000F092FC404508D00020BDE8F0874FF6D0
:202B0000FF70814501D00020F7E7781C07460D28D8D3207800F0400038B1B8F1000F04D0B3
:202B200035F8160008B10020E7E70120E5E70000A238000810B501210803FEF7B7FEFDF74C
:202B400011FF03210D48FDF7FBFE0C49091F0968884210D1FDF706FF084A1168074A083217
:202B60001068FDF7EDFE04460448001D0068A04201D1002010BD4FF0FF30FBE7E87F000883
:202B800070B505464FF0FF3401210803FEF78EFE35B14FF460401C4908601C481C490860DE
:202BA0001948006870B30820FEF7D6F90446FDF7D9FE1548016816480068FDF7C1FE06469D
:202BC000314612481438FEF7F7F904430E4801680E481838FEF7F0F904430D4801680B4811
:202BE0001038FEF7E9F90443FDF7BCFE032107481838FDF7A5FE0646314604481C38FEF70F
:202C0000DBF90443204670BD0000002000800008040000202DE9F34F83B0814604980068E4
:202C2000019002E00198401C0190019800782F28F8D0019800785C28F4D0D9F81C70002590
:202C4000A84600BF404608F1010801990C5C202C03DB2F2C01D05C2C00D11CE0FF2D03D390
:202C6000062005B0BDE8F08FE4B20121204600F0ADFB04460CB90620F3E7802C06DA21469D
:202C800084A0FFF799FD08B10620EAE728466D1C27F81040D6E700BF019800EB08010498C9
:202CA0000160202C01DA042000E000200646012D04D1681E37F810002E280BD0022D24D1FF
:202CC000681E37F810002E281FD1A81E37F810002E281AD1002027F8150083460AE0AB45AC
:202CE00001D22E2000E02020D9F8181001F80B000BF1010BBBF10B0FF1D346F02000D9F8DD
:202D0000181001F80B000020ABE708E0681E37F81040202C02D02E2C00D002E06D1E002D06
:202D2000F4D100BF0DB906209BE7002027F815000B222021D9F8180000F058FD4FF000086A
:202D400001E008F1010837F818002028F9D037F818002E28F5D0B8F1000F01D046F003060E
:202D600000E06D1E25B1681E37F810002E28F8D14FF0000AD3460820029000BF404608F1D4
:202D8000010837F8104004B954E0202C03D02E2C04D1A84502D046F00306EFE70298834536
:202DA00001D2A84516D102980B2802D146F0030640E0A84501D046F00306A84500D939E091
:202DC000A8464FF0080B0B2002904FEA8A604FEA106AD3E7802C0BDB0021204600F0F6FA6D
:202DE00004461CB1A4F180002D490C5C46F0020600BF24B121462BA0FFF7DEFC18B15F24A9
:202E000046F003060FE0412C04DB5A2C02DC4AF0020A08E0612C06DB7A2C04DC4AF0010A6D
:202E2000A4F1200084B258460BF1010BD9F818301C54A3E700BFD9F818000078E52803D1ED
:202E40000520D9F8181008700298082803D14FEA8A604FEA106A0AF00C000C2803D00AF061
:202E60000300032801D146F0020606F0020058B90AF00300012801D146F010060AF00C00C1
:202E8000042801D146F00806D9F81800C6720020E7E60000222A3A3C3E3F7C7F00000000A8
:202EA000AF3800082B2C3B3D5B5D00002DE9F04704460021204600F0ADF8074617B1384656
:202EC000BDE8F0874FF0FF09CA4600BF2169206800F096FC074607B154E065692E780EB9B8
:202EE00004274FE0E87A00F03F08E52E05D008F0080028B1B8F10F0F02D04FF0FF093AE024
:202F0000B8F10F0F1CD1E069A0B306F0400030B195F80DA026F04006B146E08820844E451E
:202F20000AD1687B504507D12946E069FFF7BAFD10B1A9F1010000E0FF2000F0FF091AE0B4
:202F4000B9F1000F05D1284600F081FC504500D118E04FF0FF094FF6FF702084A069C07AC7
:202F600000F0010030B90B222846A16900F01EFC00B907E0FFE70021204600F006F8074680
:202F8000002FA3D000BF38469AE72DE9F04104460F4600BFE088401C86B20EB1206910B91F
:202FA0000420BDE8F08106F00F0048BB2069401C2061E06828B920680089B04220DC04201D
:202FC000EFE720688078401E00EA1610C0B9E168206800F0D9FA0546012D01D80220E0E7E5
:202FE000681C08B90120DCE720680069A84201D80420D6E7E56029462068FFF745FD20611E
:20300000E6802068283006F00F0100EB411060610020C6E72DE9F04104460E46E680A56842
:20302000012D03D020680069A84202D80220BDE8F0812DB920680078032801D12068C56909
:2030400065B9E56020680089B04201DC0220EEE72068C06900EB1610206120E02068807873
:20306000070112E02946206800F08EFA0546681C08B90120DBE7022D03D320680069A84294
:2030800001D80220D3E7F01B86B2BE42EADAE56029462068FFF7F8FC00EB16102061206834
:2030A000283006F00F0100EB411060610020BEE710B50446FDF7E0FEF320FDF747FE0020A3
:2030C00010BD00002DE9F04782468846164699460025154C06E0D4F80002B04200D125469D
:2030E00004F50174D4F80002401C0028F3D105B12C464546002703E002CCC84301C57F1C55
:20310000802FF9DBA9F10100C0B2B0F1000907D0701C064602464B4629465046FFF7D2FF21
:203120000020BDE8F08700000000040801460020704770B50446204600F099FB05460DB9BF
:2031400000202060284670BD2DE9FC4707468846914600243E4611E06B46012201A9484644
:2031600000F076F80098012800D00BE09DF8045006F8015B641C0A2D00D103E0A8F101002D
:20318000A042E9DC00BF0020307014B13846BDE8FC870020FBE700000246022A01DB0B2021
:2031A0007047074850F822300BB10020187009B100200870024840F822100020F0E700000E
:2031C00058000020F7B5ADF50C7D044617461CB909200DF50F7DF0BD0020206007F0010721
:2031E000002283A98DA8FFF7F1FA0646002E2DD180A88990CDF828D283A88D9900F04CF96D
:203200000646889D46B9889D0DB9062604E0E87A00F0100000B10426C6B9A77129468398E5
:2032200000F026FA2061E87F0106A87F41EA0041687F41EA0020297F0843E0600020A06077
:20324000A061839820608398C088A0803046C0E72DE9FF4F83B004461546994604980090EB
:203260000020C9F80000204600F001FB0290029818B1029807B0BDE8F08FA07900F0800028
:2032800008B10220F6E7A07900F0010008B90720F0E7D4E90210401A01900198854200D9BA
:2032A000019D8DE02089C0F30800002869D120688078401EA16800EA512000F0FF08B8F15B
:2032C000000F1DD1A06810B9D4F810B004E06169206800F059F98346BBF1020F05D2A079A6
:2032E00040F08000A0710220C4E70BF1010028B9A07940F08000A0710120BBE7C4F814B045
:2033000061692068FFF7C0FB07462FB9A07940F08000A0710220ADE747444FEA552ABAF1F7
:20332000000F1BD008EB0A0021688978884203D920688078A0EB080A0AF0FF032168487804
:203340003A460099FFF7BEFE28B1A07940F08000A07101208EE74FEA4A2625E0A069B842A8
:203360000ED02168487801233A4604F11C01FFF7A9FE28B1A07940F08000A071012079E79F
:20338000A7612089C0F30800C0F50076AE4200D92E462089C0F3080204F11C001118324641
:2033A000009800F016FA00BF009830440090A0683044A060D9F800003044C9F80000AD1BD0
:2033C000002D7FF46FAF002054E7000010B50246802A01DA10461BE051B1FF2A01DD0023C5
:2033E00004E0A2F180030B4C34F8133018460FE0002007E0074B33F81030934200D103E073
:20340000431C98B28028F5DB00BF00F18003D8B210BD0000303900080246002100E0491CE2
:20342000094830F8110020B1074830F811009042F5D1054830F8110018B1044830F811003D
:2034400070471046FCE70000303A0008103C000870B505460E48006860B10D4A126810682E
:203460000B4A1268D16888470446601C08B1204670BD00BF0748006838B1064A12681068C2
:20348000044A1268D1688847F2E74FF0FF30EFE73C000020400000202DE9F3410446019856
:2034A00000782F2803D0019800785C2805D10198401C01900020A06002E02068C068A060C7
:2034C00001980078202807D200212046FFF7A2FD05460020606133E000BF01A92046FFF79A
:2034E00099FB054605B12AE02046FFF7DFFC0546A069C67A95B1042D00D020E006F0200005
:2035000038B10020A0606061002506F0040020B9E3E706F0040000B9052510E006F0040058
:2035200000B10CE06769F87A00F0100008B9052505E03946206800F09BF8A060CDE700BFDF
:203540002846BDE8FC81000070B504460D460C48006838B10A4909684868094909680A69CA
:20356000214690470748006838B1064909684868044909680A6921469047204670BD0000FB
:203580003C000020400000202DE9F04105460C46022C02D32869A04202D80120BDE8F08104
:2035A0002878012804D002282CD003285AD13DE0274607EB5707A86900EB5721284600F046
:2035C0001FF900B14EE0C7F3080105F1280010F801807F1CA86900EB5721284600F010F914
:2035E00000B13FE0C7F3080105F12800405C48EA002804F0010010B14FEA1810CEE7C8F39D
:203600000B00CBE7A86900EB1421284600F0F8F800B127E040F2FF1000EA440105F1280028
:203620000E183078717840EA0120B7E7A86900EBD411284600F0E4F800B113E040F2FF10EA
:2036400000EA840105F128000E18F0780006B17840EA0140717840EA01203178084320F07D
:2036600070409BE700BF4FF0FF3097E7FFF7F0BE10B502468C7ECB7E44EA03201378032B5F
:2036800005D10C7D4B7D44EA032340EA034010BD1CB52748046801217F20FEF707F94FF4D0
:2036A0007A60FEF7E1FB6846FDF719FD01208DF8040000208DF806000D20009001208DF8EF
:2036C00006000D211B48FDF708FD69461948FDF799FC1020009010211748FDF7FEFC6946D4
:2036E0001548FDF78FFC7C20FEF79EF970B1FFF721FA58B9A4F100614FF00060FDF7EEFE0E
:2037000001CC80F3088800BF20688047FCF796FE7E20FEF789F918B1FEF708F9FDF7D0FBB1
:20372000FEF704F902E0054800688047FBE70000F07F0008000C024000040240200000200C
:20374000F0B50B30154D20F007010024144A0FE003688B420BD38B4205D95E1A431847685B
:20376000C3E9006700E04368136002C004E0021D10680028ECD12046002802D1286808B16C
:203780000020F0BD064A07481060074A121A22F00702C0E9002401202860D7E774000020ED
:2037A00070000020FC000020F8300020F0B503461C460D46002000BF161EA2F1010207D0F2
:2037C00014F8017B15F801CBA7EB0C06301EF3D0F0BD70B503460C4603E014F8015B03F820
:2037E000015B151EA2F10102F7D170BD30B5034601E003F8011B141EA2F10102F9D130BD0A
:2038000070B504460D46666AAE420BD055B1607801232A4604F12801FFF754FC08B101209B
:2038200070BD65620020FBE77FB504460D462A4668462168FCF7D8FC0021415520682844A8
:20384000206010226846FCF7FFFC04B070BD30B5014600200B2200BF431003EBC01411F8E3
:20386000015B6319D8B2531E1A1EF5D130BD70B505462C46206838B12068007820B12068DE
:20388000C088A188884201D0092070BD21684878FFF74CFC00F0010008B10320F5E7002076
:2038A000F3E701030507090E10121416181C1E808182838485868788898A8B8C8D8E8F9061
:2038C0009192939495969798998A9B8C8D8E8FA0A1A2A3A4A5A6A7A8A9AAABACADAEAFB028
:2038E000B1B2A3B4B5B6B7B8A5AABBBCBDBCAFC0C1C2C3C4C5C6C7C8C9CACBCCCDCECFD0FE
:20390000D1D2D3D4D5D6D7D8D9DADBDCDDDEDFC0C1C2C3C4C5C6C7C8C9CACBCCCDCECFD0B7
:20392000D1D2D3D4D5D6F7D8D9DADBDCDDDEFF00AC2000001A2000001E2026202020212094
:2039400000003020600139205A0164017D0179010000182019201C201D2022201320142012
:203960000000222161013A205B0165017E017A01A000C702D8024101A4000401A600A70011
:20398000A800A9005E01AB00AC00AD00AE007B01B000B100DB024201B400B500B600B700F2
:2039A000B80005015F01BB003D01DD023E017C015401C100C2000201C40039010601C700AE
:2039C0000C01C9001801CB001A01CD00CE000E01100143014701D300D4005001D600D70026
:2039E00058016E01DA007001DC00DD006201DF005501E100E2000301E4003A010701E7008E
:203A00000D01E9001901EB001B01ED00EE000F01110144014801F300F4005101F600F700DD
:203A200059016F01FA007101FC00FD006301D90261006200630064006500660067006800F4
:203A400069006A006B006C006D006E006F007000710072007300740075007600770078005E
:203A600079007A00A100A200A300A500AC00AF00E000E100E200E300E400E500E600E70051
:203A8000E800E900EA00EB00EC00ED00EE00EF00F000F100F200F300F400F500F600F8002D
:203AA000F900FA00FB00FC00FD00FE00FF00010103010501070109010B010D010F011101C8
:203AC00013011501170119011B011D011F01210123012501270129012B012D012F013101B6
:203AE0003301350137013A013C013E01400142014401460148014B014D014F015101530184
:203B00005501570159015B015D015F01610163016501670169016B016D016F017101730155
:203B2000750177017A017C017E019201B103B203B303B403B503B603B703B803B903BA0358
:203B4000BB03BC03BD03BE03BF03C003C103C303C403C503C603C703C803C903CA0330049E
:203B60003104320433043404350436043704380439043A043B043C043D043E043F0440047D
:203B80004104420443044404450446044704480449044A044B044C044D044E044F0451045C
:203BA000520453045404550456045704580459045A045B045C045E045F04702171217221A1
:203BC00073217421752176217721782179217A217B217C217D217E217F2141FF42FF43FF50
:203BE00044FF45FF46FF47FF48FF49FF4AFF4BFF4CFF4DFF4EFF4FFF50FF51FF52FF53FF1D
:203C000054FF55FF56FF57FF58FF59FF5AFF00004100420043004400450046004700480026
:203C200049004A004B004C004D004E004F005000510052005300540055005600570058007C
:203C400059005A002100E0FFE1FFE5FFE2FFE3FFC000C100C200C300C400C500C600C7000E
:203C6000C800C900CA00CB00CC00CD00CE00CF00D000D100D200D300D400D500D600D8004B
:203C8000D900DA00DB00DC00DD00DE007801000102010401060108010A010C010E01100135
:203CA00012011401160118011A011C011E01200122012401260128012A012C012E013001E4
:203CC00032013401360139013B013D013F0141014301450147014A014C014E0150015201B2
:203CE0005401560158015A015C015E01600162016401660168016A016C016E017001720184
:203D00007401760179017B017D0191019103920393039403950396039703980399039A03BC
:203D20009B039C039D039E039F03A003A103A303A403A503A603A703A803A903AA031004BC
:203D40001104120413041404150416041704180419041A041B041C041D041E041F0420049B
:203D60002104220423042404250426042704280429042A042B042C042D042E042F040104AA
:203D8000020403040404050406040704080409040A040B040C040E040F04602161216221FF
:203DA00063216421652166216721682169216A216B216C216D216E216F2121FF22FF23FF9E
:203DC00024FF25FF26FF27FF28FF29FF2AFF2BFF2CFF2DFF2EFF2FFF30FF31FF32FF33FF3B
:203DE00034FF35FF36FF37FF38FF39FF3AFF00000040404040404040404041414141414084
:203E0000404040404040404040404040404040404005020202020202020202020202020241
:203E2000022020202020202020202002020202020202909090909090101010101010101052
:203E4000101010101010101010101010020202020202888888888888080808080808080826
:203E60000808080808080808080808080202020240000000F13D0008983E00080000002066
:203E800078000000E4200008103F00087800002080500000F420000800000000FFFFFF7F47
:203EA00003000000A400000000000000000001000000000000000000BD1E00080000000077
:203EC0000000000000000000000000000000000000000000000000000000000000000000E2
:203EE000000000000102030401020304060708090000000000000000000000000000000090
:203F000000000000000000000000000000000000FFFFFFFFFFFFFFFFFFFFFFFFFFFFFFFFB1
:203F2000FFFFFFFFFFFFFFFFFFFFFFFFFFFFFFFFFFFFFFFFFFFFFFFFFFFFFFFFFFFFFFFFA1
:203F4000FFFFFFFFFFFFFFFFFFFFFFFFFFFFFFFFFFFFFFFFFFFFFFFFFFFFFFFFFFFFFFFF81
:203F6000FFFFFFFFFFFFFFFFFFFFFFFFFFFFFFFFFFFFFFFFFFFFFFFFFFFFFFFFFFFFFFFF61
:203F8000FFFFFFFFFFFFFFFFFFFFFFFFFFFFFFFFFFFFFFFFFFFFFFFFFFFFFFFFFFFFFFFF41
:020000040800F2
:207FE000FFFFFFFFB1A4432C6E9A0000B652155E00800008FFFFFFFFFFFFFFFFFFFFFFFFC2
:020000040800F2
:2080000050AD0120CD840008A748010829350108A5480108BDD300086D7101080000000015
:208020000000000000000000000000003D83000801D600080000000091830008B14B010878
:20804000E7840008E7840008E7840008E7840008E7840008E7840008E7840008E784000888
:20806000E7840008E7840008E7840008E7840008F1D40008E7840008FDD40008E7840008A8
:2080800009D5000815D50008E7840008E7840008E7840008E7840008E7840008E784000856
:2080A000554D0108E7840008E7840008E7840008614D01086D4D0108E7840008E78400085C
:2080C000E7840008E7840008E7840008E7840008E7840008BD560108E7840008C9560108AA
:2080E000E7840008E7840008E7840008E7840008E7840008E7840008E7840008E7840008E8
:20810000E7840008E7840008E7840008E7840008E7840008E7840008E7840008E7840008C7
:2081200021D500082DD5000839D50008E7840008E78400080000000000000000D9D3000887
:20814000C1D30008E7840008CDD30008C948010845D50008E784000851D50008E784000818
:20816000E7840008E7840008E7840008E7840008E7840008E784000800000000000000004D
:20818000E7840008E784000800F002F800F0C7F80AA090E8000C82448344AAF10107DA45E3
:2081A00001D100F0BCF8AFF2090EBAE80F0013F0010F18BFFB1A43F001031847AC4D020050
:2081C000CC4D02000A444FF0000C10F8013B13F0070408BF10F8014B1D1108BF10F8015B25
:2081E000641E05D010F8016B641E01F8016BF9D113F0080F1EBF10F8014BAD1C0C1B09D1EE
:208200006D1E58BF01F801CBFAD505E014F8016B01F8016B6D1EF9D59142D6D370470000DA
:208220000023002400250026103A28BF78C1FBD8520728BF30C148BF0B6070476E2900F08E
:208240005387702901F0AF80662920F06183652920F05E83672920F05B83612920F05A8394
:2082600003681B0A28BF41F08001692900F00087642900F0FD86752900F0FA866F2901F035
:208280003C80782901F07B80E92900F0D787E42900F0D487F52900F0D187EF2901F03980B5
:2082A000F82901F07A800368DB0928BF41F08001632902F08B83732902F09083E32902F09F
:2082C0009B83F32902F0A083002070471FB520F012FB9DE8030000F027FE00F04EFB00F0C1
:2082E000FBFD0400002000211EF064FF2060002000211EF033FF401C6060002000211EF064
:208300006FFFA060002000211EF03EFFE06000F017FD1FBD10B5002001F05BFA10BD03F058
:20832000A4FB1146FFF7D2FF1BF0F2FF04F034F803B4FFF7EFFF03BC01F0E2FE2B4B196842
:208340000868B0E8F04F80F30988BFF36F8F4FF0000080F31188704700000000064800686A
:20836000006880F3088862B661B6BFF34F8FBFF36F8F00DF00BF00BF08ED00E0DFF80C000E
:20838000016841F470010160704700BF88ED00E0EFF30980BFF36F8F144B1A681EF0100F79
:2083A00008BF20ED108A20E9F04F106008B44FF0500080F31188BFF34F8FBFF36F8F1DF0F3
:2083C00051FF4FF0000080F3118808BC19680868B0E8F04F1EF0100F08BFB0EC108A80F3D9
:2083E0000988BFF36F8F704700BF00BF08000020EFF30580704700000B49D1F800C04A6832
:208400005CF8043B1068184442F8040B8C4528BFA1F1DC0C8A4228BFA1F1DC02C1F800C0DE
:208420004A6020F000407047602C0120FEB442464B4654465D463EB400F021FD3EBC904606
:208440009946A246AB46FEBC00F032F8704700BF80EC200B7047C0EC200B704790EC200B97
:208460007047D0EC200B704785460D98DDF838E00F9B5DF8042B20E90C009DE8FE1F85469A
:2084800001BD4DF808ED0DF1080E4DF804ED2DE9FF1F002102B4694681B003F038FADDF8B5
:2084A00040E012B070470000844C0200846302004DF808ED0DF1080E4DF804ED2DE9FF1FB0
:2084C000002102B4694681B003F088BA0948804709480047FEE7FEE7FEE7FEE7FEE7FEE7A2
:2084E000FEE7FEE7FEE7FEE704480549054A064B70470000094D010889810008502D0120E8
:2085000050AD0120508D0120508D012010B500F0E3FC001D10BD00BF45EC010070B5A0FB12
:208520000140B4F1805170F1000024BF002070BD204600F007F805001CBF214600F072FBFA
:20854000284670BD70B5064600F0C2FC056806F10B0020F00704B4429CBF002070BD2B46C8
:208560006A68BAB11068A04210D304F1080188423CBF5068586007D3516810194160116878
:20858000091B016058601460101D70BD13465268002AE7D12146284600F0B2FC0028DED191
:2085A00070BD70B50446051F00F092FC0068002C14BF446870BD002C18BFAC423CBF2046EB
:2085C0006468F8D301680A18AA4218BF456003D12A6805461144016028684119A1421CBF02
:2085E0006C6070BD6168696021680844286070BD53EA020C00F069802DE9F04B4FF00006AC
:20860000002B1FBFB3FA83F503FA05F424FA05F65E4012BF1643B2FA82F502FA05F4C5F187
:2086200020051EBF22FA05FC44EA0C04203556EA044C4FEA144418BF641C4FF000084FF08A
:208640000009904271EB030C39D3002919BFB1FA81F701FA07F6B0FA80F700FA07F6C7F1DC
:2086600020071EBF20FA07FC46EA0C062037B6FBF4FCA7EB0507103F07F01F0BCBF12006AF
:208680000CFA0BFB2CFA06F644BFB3460026202FA4BF5E464FF0000B5BEA060C08BF4FF08D
:2086A000010B19EB0B09ABFB027C48EB0608C01B06FB02CC0BFB03CC71EB0C01C1E70B4650
:2086C000024641464846BDE8F08B13B54FF000004FF00001AFF30080BDE81C4070470000FC
:2086E0007CB51D4616460C00009001D02044401E074B7B442A4669460190304600F00DFD2A
:2087000005461CB10020694600F01AFD28467CBD550A00000FB4044910B503AA029800F059
:208720001DFD10BC5DF814FB2C0200200FB400B58DB010A9099000910B904FF0FF300A9066
:2087400000200C90064878440690064878446A4607900F9909A800F027FF0DB05DF814FBDC
:208760007F0E0000970E00002DE9FF5F1D464FF0FF3B91464FF000085F46D5E90146A9699D
:2087800001987F1C8847296A824688470028F6D1BAF1FF3F0CD0002E24F4C06419DD600632
:2087A00014D5BAF12B0F09D0BAF12D0F0ED103E0584604B0BDE8F09F44F48064A96901981C
:2087C0007F1C8847761E8246002E02DDBAF1300F03D0B9F1000F26D032E0A969761E019809
:2087E0007F1C44F400748847002E824605DDBAF1780F06D0BAF1580F03D0B9F1000F10D005
:208800001EE0B9F1000F02D0B9F1100F18D1A969761E01987F1C24F40074884782461020F0
:2088200002E0082000E00A20814609E0A96908FB0908761E01987F1C44F400748847824643
:20884000002E05DD4946504600F09AFE0028EDDAE96901988847A00502D46FF00100A8E748
:20886000E00725D1600613D5600502D5C8F1000000E0404629680A1D2A600968220501D5C2
:20888000087015E0220701D5088011E008600FE02868011D29600068210502D580F8008008
:2088A00006E0210702D5A0F8008001E0C0F8008038467EE770B5064600F01AFB0468054692
:2088C00030460A22002100F041FF2C6070BD2DE9F05F93460F4680460446002600F008FB30
:2088E000D0F80090824614F8015B2DB1FFF70EFE0068405DC007F6D12B2D02D02D2D1AD00F
:20890000641E0021CAF800105A463946204600F07BFE014627B13868A04201D1C7F8008042
:20892000DAF80000022809D0CAF80090700505D54842BDE8F09F46F48066E2E70846F8E7ED
:208940001BF0E2B801491BF06FBA00002C0200200B4910B5A1F17C020A4CC2E937123721DB
:2089600006E000EB104342F82130074B00FB03400B1EA1F10101F4DC10BD0120E8E700006E
:20898000002C0120E119D666CD0D01002DE9F041074615460E461020FFF7D4FD04000AD061
:2089A0006760C4E9026500F09FFA0168216004600020BDE8F0810120FBE70000014A00F091
:2089C00029BF0000B4030020401ECAB210F8011F8A4202D00029F9D10020704740EA010340
:2089E000024630B59B0710D14FF0013400E008C208C91D1B9D4315EAC41FF8D013F0FF0113
:208A000002F8011B0DD01B0AF8E711F8013B002B02F8013B05D011F8013B002B02F8013B3E
:208A2000F3D130BD10B5431C02E010F8011B71B18107FAD14FF0013202C88C1A8C4314EA37
:208A4000C211F9D0C01A0A0603D0C01E10BDC01A10BD0A0401D0801E10BD0902FCD0401EEC
:208A600010BD40EA010370B59B072ED14FF00136042A2AD308C810C99D1B9D43121F15EA23
:208A8000C61517D0D8B2E1B2401A50EA056110D198B2A1B2401A50EA05410AD123F07F40F8
:208AA00024F07F41401A50EA052102D1180EA0EB146070BDA342DBD018BA21BA884201D922
:208AC000012070BD4FF0FF3070BD0AB9002070BD10F8013B11F8014B63B1A3420AD1521EC0
:208AE00008D010F8013B11F8014B1BB1A34201D1521EEDD1181B70BD421E12F8013F002B1F
:208B0000FBD111F8013B002B02F8013BF9D17047032A40F2308010F0030C00F0158011F8B6
:208B2000013BBCF1020F624498BF11F801CB00F8013B38BF11F8013BA2F1040298BF00F811
:208B400001CB38BF00F8013B11F0030300F02580083AC0F0088051F8043B083A51F804CB26
:208B6000A0E80810F5E7121D5CBF51F8043B40F8043BAFF30080D20724BF11F8013B11F804
:208B800001CB48BF11F8012B24BF00F8013B00F801CB48BF00F8012B704710B5203AC0F041
:208BA0000B80B1E81850203AA0E81850B1E81850A0E81850BFF4F5AF5FEA027C24BFB1E854
:208BC0001850A0E8185044BF18C918C0BDE810405FEA827C24BF51F8043B40F8043B08BF9C
:208BE0007047D20728BF31F8023B48BF11F8012B28BF20F8023B48BF00F8012B704701F04D
:208C0000FF03114601B543EA032242EA024200F00BF801BD02F0FF0343EA032242EA02421C
:208C200000F002B84FF000020429C0F0128010F0030C00F01B80CCF1040CBCF1020F18BFDE
:208C400000F8012BA8BF20F8022BA1EB0C0100F00DB85FEAC17C24BF00F8012B00F8012B45
:208C600048BF00F8012B70474FF0000200B5134694469646203922BFA0E80C50A0E80C500B
:208C8000B1F12001BFF4F7AF090728BFA0E80C5048BF0CC05DF804EB890028BF40F8042BEF
:208CA00008BF704748BF20F8022B11F0804F18BF00F8012B704700004FF0013C50F8042B75
:208CC00051F8043B9A4221D1A2EB0C03934313EACC1317D150F8042B51F8043B9A4215D147
:208CE000A2EB0C03934313EACC130BD150F8042B51F8043B9A4209D1A2EB0C03934313EA26
:208D0000CC13DBD04FF00000704700BFD01A01BAB1FA81F101F0180122FA01F0CB40C1F17E
:208D20002001DBB2C0B2C01A2CFA01F3D11A914311EAC311E6D170477047704770470000FE
:208D400070B5064C7C44064D7D4403E0206820448047241DAC42F9D170BD0000D4430200F3
:208D6000E043020070B500F0A2FE4469054614B9002000F05BFEE06904F12006401CE061EA
:208D8000304600F0E1FD002801D0266803E0286800F10100286002D04FF0000200E022689E
:208DA0004FF000013046FFF751FB3046FFF769FB304600F050FE70B500F079FE44690546B3
:208DC0000CB900F0A7FD6069401E606117D104F12006304600F0B8FD21696961E56928B1B9
:208DE00004F17800266800F084FD01E000202061002D04D13046BDE8704000F07DBE70BD60
:208E000070B50546466A00F052FE0446284600F09BFD20B12946606900F024FE07E0A5F11A
:208E20002000C169491EC1612168491E21604169491C4161016911B96169016160612846AE
:208E400002F0E2FD304670BD70B5054600F02FFE0446284600F078FD38B12946A06900F0A3
:208E600001FEC169491CC16102E0A5F12000C169012902D1A1698161A061012070BD70B523
:208E800000F015FE846905460CB900F043FD04F12006304600F058FD68B1E06926680128B3
:208EA00002D0401EE0610BE0A16904F17800A96100F01FFD04E0E069012801D1A069A8618F
:208EC000304670BD002300F037BE012300F034BE00487047882C012000487047A02C012021
:208EE00000487047B42C012000487047B82C012000487047802C01207047704770477047C6
:208F000038B504460A4600206946AFF30080002808BF38BD02460099204601F0FFF80120A5
:208F200038BD012002F0EBB9F8B5AFF30080054600200C46102000BF0646A819A0420DD935
:208F4000324669460020AFF30080070008BF02F0D6F90098A04218BF0546C419FFF7B8FFF3
:208F600005600746F01D20F007004619284600F00AF8B44208BFF8BDA21B31463868BDE871
:208F8000F84001F0CBB800210160C0E9011070471020704710B5FFF7ABFF006810BD10B5EC
:208FA0000446FFF7A5FF046010BD70B5044685690068C10601D5302600E02026C00707D020
:208FC00070BDD4E9012130469047206A401C20626D1EF6D570BD70B5044685690078C007B1
:208FE00007D170BDD4E9012120209047206A401C20626D1EF6D570BD09684A0501D540B203
:209000007047C905FCD500B2704709684A0501D5C0B27047C905FCD580B2704770B50C46D3
:209020000546012A05D02878800600D5EA69002302E0012305E05B1C934202D2E05C002805
:20904000F9D1A869E618C01AA861286A184428622846FFF7AAFF04E0D5E9012114F8010BF3
:209060009047B442F8D32846FFF7B5FF70BD00002DE9F0410646002410687529314616A514
:2090800010D0FFF7B9FF002802DA404213A507E031688A0701D512A502E0490704D511A5A5
:2090A000012401E0FFF7B1FF00210A2206F1240709E0B0FBF2FCB0FBF2F302FB1C0030300A
:2090C00078541846491C0028F3D123462A463046BDE8F04101F08AB8000000002D00000090
:2090E0002B0000002000000011680268006A530501D508700AE0D30501D5088006E0130613
:2091000003D5C217C1E9000200E008600120704701694A1C02610878704700B58FB0CDE9BE
:2091200001310021059105497944CDE903101146684600F043F90FB000BD0000E5FFFFFFE3
:209140000A6802F8010B0A607047D1E900239A4202D2531C0B60107070470000074B70B561
:209160000D467B44FFF7D9FF0446284602F08BF810B14FF0FF3070BD204670BDC3AC010083
:209180002DE9FF5F15468A460446DFF8AC80F8440027D8E900103E46CDE9001010E03AF843
:2091A00016106A4602A802F083F8411C07D02178890603D5E269391891420DD80744761C5D
:2091C0002078800602D5E069B84205DDAE42E6DB3AF816000028E2D1A069C01BA061204656
:2091E000FFF7E3FED8E90010CDE90010002017E03AF818106A4602A802F05AF8B0F1FF3F13
:2092000081460BD000250DF1080B05E0D4E901211BF8050090476D1C4D45F7D308F10100E4
:20922000B0428046E4DB206A384420622046FFF7D2FEBDE8FF9F0000CE2F02002DE9F0417A
:209240008046D21D22F007020025D2E90002F52915A614D0011E72F1000106DA0023D0EB5E
:20926000030063EB020211A608E0D8F800108B0701D50FA602E0490701D50EA601251146C4
:20928000002408F1240704E000F062FF30323A55641C50EA0102F7D12B4632462146404605
:2092A000BDE8F04100F0A2BF000000002D0000002B0000002000000030B4002100F12404F1
:2092C00008E002F00705D208303542EA4372DB086554491C52EA0305F3D10468002310A23E
:2092E000250707D5A40600D421B1C46901230DA2641EC46130BC00F079BF10B504462146E5
:209300001068FFF782FE02462046BDE810400023D2E7D21D22F00701D1E90023CCE7000047
:209320000000000030000000F0B40D460188090502D5214C7C4402E01F4C7C440E340021FB
:2093400000F1240608E002F00F071209E75D42EA03721B097754491C52EA0307F3D102782A
:209360000023120704D5702D06D009B1022311342246F0BC00F03ABF01231034F8E770B5D8
:2093800004460D4621461068FFF73FFE024629462046BDE870400023C6E7D21D22F00703D1
:2093A000D3E90023C0E70368126843F0200303600823C3610023B7E7302E02002DE9F05FB4
:2093C000894604464FF0000ADFF874B1FB44C0F820A02046E1688847002874D0252806D06B
:2093E000D4E901219047206A401C2062F1E700265F462046E16888472028054607DB312D5B
:2094000005D2781910F8200C08B10643F1E7B00701D526F00406C4F81CA00027C4F818A016
:209420002A2D09D0284617F003FF38B304EB8708303DC8F8185019E059F8041B204604EBC9
:2094400087029161E1688847012F054618D1E069002820DA26F020061DE0D8F8180000EB9E
:20946000800005EB40003038C8F818002046E1688847054617F0DCFE0028EED1012F0AD061
:209480002E2D08D12046E16888477F1C0546022F46F02006C4DBA069002803DA404246F042
:2094A0000106A061F00701D026F010066C2D0BD0682D09D04C2D39D06A2D35D0742D35D00A
:2094C0007A2D33D016E038E0E1682F4620468847B842054609D16C2F26D04FF48060E168C5
:2094E000064320468847054604E06C2F1AD04FF4807006430DB3A5F14100192802D82035B7
:2095000046F400664A462946204626604E46FEF795FE80B101280BD0F61D26F0070000F14E
:20952000080956E74020E4E78020D8E70020D6E706F104094DE7284652E7206ABDE8F09FD9
:20954000C02D02000FB400B58DB010A9099000910B904FF0FF300A9000200C90064878441B
:209560000690064878446A4607900F9909A800F01BF80DB05DF814FB670000007F000000A1
:209580003A2800D2303820F02002412A01D3A2F13700884201D34FF0FF3070470268114472
:2095A0001378016018467047D16005497944516104497944116200211161114601F028BA82
:2095C000EDFFFFFF250C0000426842B1016811F8013B23B1521EC0E90012184670470121EF
:2095E000C160881E704742685AB1C368016843B983688B4205D0491E521CC0E9001200206B
:2096000070474FF0FF3070472DE9F05F824615468B4600270AF10104B9460078302801D04E
:209620009DB113E014F8010B0127782803D0582801D045B10AE00DB1102D07D1002714F8FF
:20964000010B102502E0082500E00A250026B0460EE005FB080005FB06F101271FFA80F8E9
:2096600001EB1046B6F5803F00D3B94614F8010B2946FFF785FF0028EBDABBF1000F05D0EE
:209680000FB1641E00E05446CBF80040B9F1000F06D0FFF72DFC02210160C81EBDE8F09FBF
:2096A00048EA0640FAE700000FB4002300B589B00CA900910B99CB60214B7B440693214B38
:2096C0007B44079304236FF00042CDE901321E4A7A446B460892024600201FF07DF909B069
:2096E0005DF814FB70B506464FF0FF3015460C46324686B00091CDE9010169460020049020
:2097000004A8FFF7D1FF02460498211825B108B1084600E020462860049800280DD0002A44
:2097200002DD0098884208D03246081B69460094CDE9010404A8FFF7B7FF06B070BD00003C
:209740000BFFFFFF23FFFFFF070B00002DE9F04791460F4680460446002614F8015B2DB1DA
:20976000FEF7D4FE0068405DC007F6D12B2D02D02D2D18D0641E4A4639462046FFF744FFF3
:2097800027B13968A14201D1C7F800804FF0020471050BD54042002803DDFFF7A9FB046039
:2097A000A007BDE8F08746F48066E4E70028F8DAFFF79EFB04606FF00040F2E710B50020B1
:2097C00001F096FDFEF7A6FDBDE81040012000F097BC2DE9F0410646FFF786FB80464546B9
:2097E00013E016B1E068B0420ED120682860D4E90101D8F8007088472046FEF7D2FED8F8BD
:209800000000B842EBD100E025462C68002CE8D1BDE8F0812DE9F04115460E46040002D1EB
:209820002C6804B90BA4204601F09AFD0444207870B127463146384601F082FD0444207887
:2098400010B1002004F8010B38462C60BDE8F0810027F9E7000000000022CBB210F8011B35
:20986000994200D1421E0029F8D110467047431A28BF9A427FF64CA9032A1044114440F24B
:20988000268010F0030F1EBF11F8013D521E00F8013D10F0030F7FF4F6AF11F0030301F024
:2098A000AC85083AC0F00B8051F8043D083A51F804CD40F8043D40F804CDFFF7F3BF121DBB
:2098C0005CBF51F8043D40F8043DAFF30080D20724BF11F8013D11F801CD48BF11F8012C31
:2098E00024BF00F8013D00F801CD48BF00F8012C704710B5044600F0DAF8783CC069214691
:2099000001F0EAFD002804D12046BDE81040FEF748BE10BD10B500F0CAF8016919B1002282
:209920000261884701E080688047FFF747FF000002680B689A4205D140684968884201D1A5
:20994000012070470020704710B50349FFF7F0FF80F0010010BD0000A4C302082DE9F14D5F
:20996000D0E90C8581B00646D0F828A000F09FF80446A6F120073046FFF742FA3046FFF7ED
:20998000E3FF08B1606800E0B868206101F076FEBDE8FC8DFFF734FA6669BE4202D1FFF794
:2099A0000AFA0DE030696061FFF705FA05E0FFF727FAFFF7AFFFFFF7FEF9606930616661B9
:2099C00000273C4606F1200B11E02E686B4600223146584601F0C6FD08B1FFF7C3F93146B7
:2099E000104814F001FC00B101274544641C5445EBD38FB1684614F0D7FD042001F028FDD5
:209A0000694614F0C9FD0446684614F0DCFD064A0449204601F08BFD584600F007F8FFF7F9
:209A2000CAF9B5E74CC60208C7E5010870B5054600F03DF804461DB12846FFF785FF08B1A8
:209A4000A06801E055F8140C206101202073BDE87040FFF75FBF040001D0FFF7D1F9204617
:209A6000FFF7E4FF70B504000D4609D004F12000FFF75EFF20B12068A84201D1204670BDA8
:209A8000002001F0E5FCD5E90023A0F15801C1E90023002240F85C2C40F8642C40F8682CC6
:209AA00040F8785D70BD000010B5FFF787FE70B500F030FB04680546A4B92020FEF742FD64
:209AC000040011D0094900202C60C4E900010849A1602073206160610649A06109B101F0D3
:209AE000E7FCE061204670BDFFF768FE97B60008A99A0008000000008268002A02D0014686
:209B00000120104770470000017A51B9417A89B1491E417241680A1D426009680160042119
:209B20000172C9B2491E017201680A0E0902016010467047B02070472DE9FF4D8CB05FEAF5
:209B4000000B4FF0000016460D4607900990059008900DD0BBF1010F0AD0BBF1020F01D0AE
:209B6000002204E2A86BA864E86B04902C6C0FE095F85000C007E86C049078D10F9818B10B
:209B800004980068C0F30740049901EB800442E00F98022811D02788002F68D06088241DA7
:209BA00000F00102394662F35F0161B1012934D002297DD00329EBD12FE12768002FECD054
:209BC00060680834ECE7BBF1000F24D0A96C002301EB000806A9009130460F22194601F09C
:209BE00074FD0698804516D808EB0701814212D9A96CA963201D0499C5E90F102846FFF7CE
:209C000023F90028ACD020680F2240F31E0004443046049423E0241DBAE7BBF1000F27D08D
:209C200006A90023009130460D22194601F04DFD0698296A88426ED1E86AA0426BD1206850
:209C400004A940F31E0004440023009130460F220494194601F022FD30460022049504A97E
:209C600000230091194601F019FD22463DE2D6E0A96C002301EB00080AA9009130460F2276
:209C8000194601F022FD0A987F1E804543D808EB070181423FD96768B81C0ED0781C0ED06D
:209CA000206806ABC20F3946284601F05BFC00E033E078B302281DD004E0022257E105F1FA
:209CC0005800069004A90023009130460D22194601F0FBFC0498EC622862069868622068E5
:209CE000022140F31E0002192846FEF7AFFB3A4680215FE004A90023009130460D22194603
:209D000001F0E3FC0498EC6228620698A86205F12800E3E7FFE708343AE72168069121F0FB
:209D20000048BBF1000F10D00AA90023009130460D22194601F0C9FC0A98296A884240D10F
:209D4000E86AA0423DD101203CE0A96C401E01EB000A0AA90023009130460F22194601F0BD
:209D6000B4FC0A9882453AD80AEB0701814236D904F1040A00270AE06B4600222846DAF8C2
:209D8000001001F0EFFB20B90AF1040A7F1C4745F2D3474523D104A90023009130460D2284
:209DA000194601F092FC0498EC6228620020D34A022168622846FEF749FB062010B0BDE8F5
:209DC000F08D002058B10020C5E90A8004202863201D68630698404506D10120079006987E
:209DE000404515D1002014E004EB8800002250F8041F134641F31E010C1804A9009130465C
:209E00000495114601F04AFC30460F22049465E1042000EB88000444FDE60122A7E004988E
:209E2000006801900498001D02900F9810B30198000C8DF80D0001980004019002208DF868
:209E40000C0001A8FFF760FE0446B0281AD03F2C41D800F03F01042000EB810706A90D24C2
:209E60000023009130462246194601F02EFC0698384442E000208DF80D00019800020190BC
:209E80000320DCE70998B0B905980028C5D004A8002300900E221946304601F016FC049974
:209EA000059105A90023009130460F22194601F0F5FB012008900798002870D0002204A934
:209EC0000091304613460495114601F0E7FB0898002878D0FEE07F2C19D800F03F01042081
:209EE00000EB810706A90D240023009130462246194601F0EAFB0698C01B049004A800236C
:209F0000009022461946304601F0C8FB99E78F2C1AD80007040C01A8FFF7F6FD54EA001498
:209F20003FF4CBAE002322461946304601F0E4FB08B103221BE0200401D501200990600454
:209F4000E4D5012005907CE79F2C16D800F00F020D2A0BD00F2A09D006A9002300910D24BD
:209F60003046194601F0B1FB0698C6E7042201212846FEF76BFA092020E7AF2C10D804F02D
:209F800007000121401C81400A01103A200703D5012042F4804205900023194658E0AAE035
:209FA000B72C35D8B12C0FD0B22C15D0B328DDD101A8FFF7A9FD00F00F0100F0F000491C1F
:209FC00041EA00322BE073E001A8FFF79DFD0200CCD00F2AE0D9C9E700273C4601A8FFF705
:209FE00093FD00F07F01A1400F43000601D5E41DF4E706A90D2400230091304622461946A5
:020000040800F2
:20A0000001F063FB069800EB870000F5017074E7BF2C07D800F00700401C40F40022012389
:20A02000012115E0C72C25D809D101A8FFF76CFD02009BD00F2A99D80023042108E0C62CFE
:20A040000DD000F00700401C40F4202203231946304601F051FB00283FF458AF69E701A8C7
:20A06000FFF752FD00F00F0100F0F000491C41EA0032EBE7C82C0BD0C92C09D0CF2CAAD90C
:20A08000D72CA8D800F00700401C40F400220DE001A8FFF739FD00F00F01491C00F0F0008D
:20A0A00041EA0032C82C01D102F580120523B7E704A8002300900F221946304601F005FBD8
:20A0C0000499059105A90023009130460E22194601F0E4FA094930460F22049104A90023B9
:20A0E0000091194601F0DAFA044A03212846FEF7ADF9072062E6082060E600005D99000855
:20A1000001491820ABBEFEE72600020000487047802C012000487047BC2C01200346406882
:20A120008C46002818BF88423CBF03464068F8D318681844884207D00CF1030020F0070039
:20A14000001D411A521A0146081D0A60FEF729BA30B5B0F10A024FEA900E71F100034EEA67
:20A16000817EB0EB0E0061EB91014FEA101E4EEA017E10EB0E0041EB11114FEA102E4EEA35
:20A18000016E10EB0E0041EB11214FEA104E4EEA014E10EB0E0041EB1141401841F10001B9
:20A1A0004FEAD00040EA41704FEAD10110EB80054FEA810444EA907444EB01046D1944EB57
:20A1C0000404521BA3414FF0000348BF0A3200D530BD401C41F1000130BD10B50446FEF75F
:20A1E00095F90068005D00F0010010BD2DE9F0470D4699469246044600F124080168880699
:20A2000004D5E06921F01001216000E00120A84201DD471B00E00027A1697A1902EB0900B4
:20A22000081AA0612078C00602D42046FEF7BDFE002608E0D4E901211AF806009047206A4B
:20A24000401C761C20624E45F4DB2078C0060AD52046FEF7AAFE06E0D4E901213020904700
:20A26000206A401C2062381EA7F10107F4DC07E0D4E9012118F805009047206A401C206296
:20A28000281EA5F10105F3DC2046FEF7A4FE2078000602D50220BDE8F0870120FBE77047A3
:20A2A0002DE9FF4F0C461E464FF0FF378BB0D2E90001DDF860800A908A46C1F30A5505B928
:20A2C0003D46002108464FF00000BAF1000F00F4400005DA00EB80004FF4400101EA500056
:20A2E0004FEA9059B9F1010F00DDB9460A9850EA4A000ED044F61050A5F2FF3545432F1472
:20A30000B8F1000F1ED07542291E1EDDC9F100021CE0B8F1010F4FF0000001D0302103E0E9
:20A32000F24305E02154401CB042FBDB30460022002121540B99C1F80880C1E900200FB0CE
:20A34000BDE8F08FBD1B6D1CDEE74A4600DA694206A801F07BFE06AB93E8070003AB83E83A
:20A36000070050460A9902F00CFB8DE80700A0F500501F3800900398002D0ADD42F21F0159
:20A380004A460844002303A90390684602F0B8FD09E0A0F500504A461F38002303A9039013
:20A3A000684602F0D7FD8DE807000004000C03D04FF0FF30410800E01046B8F1000F03D052
:20A3C0000022009215461EE0751E05D4FFF7C0FE303262556D1EF9D5B3460122084302D0A5
:20A3E00000227F1C04E02078302801D100227F1E002A099784D01DE0112D07DAFFF7A8FE65
:20A40000303262556D1C50EA0102F5D1084302D00098C8B10EE00021681E05E0235C625CB2
:20A4200063542254401E491C8142F7DBAB46A81B401E0990002004F80B000B98099AC0F8C7
:20A440000880C0E9002B7AE711264FF0000857E72DE9F04F88460446D21D22F0070191B0CC
:20A46000D1E90001CDE90A0114F0D9FF02460B98C00F01D02D2007E02068810701D52B2094
:20A4800002E0202101EAC000032A099001D0072A05DB03464146204601F00CFB0BE1207894
:20A4A000800601D5E06900E00620B8F1650F814606D0B8F1660F18D0B8F1670F70D131E0C0
:20A4C0000020B9F1110F009001DB112301E009F101030AAA01A90CA8FFF7E2FEDDE90C70E9
:20A4E000002609F10105834647E001204B4600904FF000470AAA01A90CA8FFF7D1FEDDE9E1
:20A500000DB00C995D46002610B909F101000D18B9EB050003D4C0F1FF3609F10105A5EB31
:20A5200009002BE0B9F1010F01DA4FF001090020B9F1110F0090484601DD112300E00346E6
:20A540000AAA01A90CA8FFF7ABFEDDE90C704D4600268346207800070AD4AB4500DA5D469C
:20A5600001A8012D04DD411911F8011C302907D04F4502DA17F1040F04DA012082460FE032
:20A580006D1EEEE7002F02DCED1B3E4403E0781CA84200DD7D1CB81B00F1010A4FF0004798
:20A5A0002078000703D4AA4501DB4FF0FF3A0021B7F1004F0DF143088DF8431024D0022093
:20A5C0002B23002F01DA7F422D230A21021EA0F1010000DC5FB197FBF1FC97FBF1F201FB59
:20A5E0001C7C17460CF1300C08F801CDEEE7A8F1010003702188090501D5452100E0652124
:20A60000A0F1010800F8011C09980FA9A1EB0807FF1D00B10120411901EBEA70A169384483
:20A62000081A401EA0612078C00602D42046FEF7BCFC099828B1D4E901219047206A401C3C
:20A6400020622078C00622D52046FEF7AEFC1EE0002E04DBB34502DD01A8805D00E0302086
:20A66000D4E901219047206A401C2062761CAAF101005FEA000A0AD1FEF72EFCC0680168B0
:20A68000405CD4E901219047206A401C2062281EA5F10105DCDC07E0D4E9012118F8010B84
:20A6A0009047206A401C2062381EA7F10107F3DC2046FEF790FC032011B041E62DE9F04F4F
:20A6C00004460D46D21D22F0070089B0D0E900974846394614F0A3FE0246F80F01D02D232A
:20A6E00007E02068810701D52B2302E0202101EAC0038DF820300BB1012000E00020032A8F
:20A70000824601D0072A04DB2946204601F0D2F93FE12078800601D40D2500E0E569C7F3D2
:20A720000A560D2D49DA00214FEA175B08464FF00000002F00F4400007DA00EB80004FF411
:20A74000400100EBD07001EA60008115012901DD4FF0FF3100224FEA850CBCF1180F06D39C
:20A760001346ACF118004FF08052C24003E04FF4801323FA0CF30CF10C0CBCF1200F04D31B
:20A78000ACF1200C09FA0CF001E007FA0CF000294FF0004801DD18B90FE00ED140450CD382
:20A7A00019EB02095F4121B9404502D19F4329EA0209BBEB175F00D0761C2088000502D5B6
:20A7C0007B48784402E07A487844193808AA302302F80A30037C0AF10101002E0AF1020A5F
:20A7E00053546A4602DC4FF0300101E04FF031014FF001088DF8001002D0A6F2FF3603E003
:20A8000059EA470100D06B4E002D02DC2178090704D54FF002082E218DF80110C44600213E
:20A820000BE0C7F303433F01C35C491C6D1E02F80830052908F1010801DA002DF1DC002186
:20A840000CE000EB1973491C1B786D1E082902F808304FEA091908F1010801DA002DF0DC7E
:20A8600021688B0602D516E0A8F10108E04505DD02EB080313F8013C302BF5D0B8F1000F30
:20A8800009DD02EB080313F8013C2E2B03D1090701D4A8F10108002D05DD3E2102F808105E
:20A8A0006D1E08F10108407C002E02F8080008F1010804DA2D20764202F8080002E02B200B
:20A8C00002F808000A214FF47A70864208F101080BDB96FBF0F3303302F8083096FBF0F3F1
:20A8E00008F1010800FB136601E0642E0CDB642096FBF0F3303302F8083096FBF0F308F18E
:20A90000010800FB136601E00A2E06DB96FBF1F0303002F8080008F1010896FBF1F001FB7C
:20A920001060303002F80800A16908F1010808EB050202EB0A00081AA0612078C00602D4F1
:20A940002046FEF732FB216A08AE01EB0A00206204E0D4E9012116F8010B9047BAF1010A4C
