:020000040800F2
:1080000050AD0120CD840008A7480108293501089A
:10801000A5480108BDD300086D71010800000000EB
:108020000000000000000000000000003D83000888
:1080300001D600080000000091830008B14B010840
:10804000E7840008E7840008E7840008E784000864
:10805000E7840008E7840008E7840008E784000854
:10806000E7840008E7840008E7840008E784000844
:10807000F1D40008E7840008FDD40008E784000874
:1080800009D5000815D50008E7840008E784000832
:10809000E7840008E7840008E7840008E784000814
:1080A000554D0108E7840008E7840008E7840008CC
:1080B000614D01086D4D0108E7840008E784000860
:1080C000E7840008E7840008E7840008E7840008E4
:1080D000E7840008BD560108E7840008C956010876
:1080E000E7840008E7840008E7840008E7840008C4
:1080F000E7840008E7840008E7840008E7840008B4
:10810000E7840008E7840008E7840008E7840008A3
:10811000E7840008E7840008E7840008E784000893
:1081200021D500082DD5000839D50008E7840008BE
:10813000E78400080000000000000000D9D3000818
:10814000C1D30008E7840008CDD30008C94801085E
:1081500045D50008E784000851D50008E7840008E9
:10816000E7840008E7840008E7840008E784000843
:10817000E7840008E7840008000000000000000019
:10818000E7840008E784000800F002F800F0C7F870
:108190000AA090E8000C82448344AAF10107DA4562
:1081A00001D100F0BCF8AFF2090EBAE80F0013F0ED
:1081B000010F18BFFB1A43F001031847C44D02001A
:1081C000E44D02000A444FF0000C10F8013B13F09C
:1081D000070408BF10F8014B1D1108BF10F8015B20
:1081E000641E05D010F8016B641E01F8016BF9D113
:1081F00013F0080F1EBF10F8014BAD1C0C1B09D16A
:108200006D1E58BF01F801CBFAD505E014F8016BDB
:1082100001F8016B6D1EF9D59142D6D3704700006D
:108220000023002400250026103A28BF78C1FBD87F
:10823000520728BF30C148BF0B6070476E2900F05D
:108240005387702901F0AF80662920F06D8365297E
:1082500020F06A83672920F06783612920F0668314
:1082600003681B0A28BF41F08001692900F00087DC
:10827000642900F0FD86752900F0FA866F2901F067
:108280003C80782901F07B80E92900F0D787E42938
:1082900000F0D487F52900F0D187EF2901F039806B
:1082A000F82901F07A800368DB0928BF41F08001DA
:1082B000632902F08B83732902F09083E32902F093
:1082C0009B83F32902F0A083002070471FB520F0A4
:1082D0001EFB9DE8030000F027FE00F04EFB00F0BF
:1082E000FBFD0400002000211EF070FF2060002034
:1082F00000211EF03FFF401C6060002000211EF0A6
:108300007BFFA060002000211EF04AFFE06000F02B
:1083100017FD1FBD10B5002001F05BFA10BD03F082
:10832000A4FB1146FFF7D2FF1BF0FEFF04F034F868
:1083300003B4FFF7EFFF03BC01F0E2FE2B4B19681B
:108340000868B0E8F04F80F30988BFF36F8F4FF0F3
:10835000000080F3118870470000000006480068A4
:10836000006880F3088862B661B6BFF34F8FBFF331
:108370006F8F00DF00BF00BF08ED00E0DFF80C00EA
:10838000016841F470010160704700BF88ED00E0B2
:10839000EFF30980BFF36F8F144B1A681EF0100FB4
:1083A00008BF20ED108A20E9F04F106008B44FF0AC
:1083B000500080F31188BFF34F8FBFF36F8F1DF014
:1083C0005DFF4FF0000080F3118808BC1968086851
:1083D000B0E8F04F1EF0100F08BFB0EC108A80F329
:1083E0000988BFF36F8F704700BF00BF08000020EF
:1083F000EFF30580704700000B49D1F800C04A68D0
:108400005CF8043B1068184442F8040B8C4528BF04
:10841000A1F1DC0C8A4228BFA1F1DC02C1F800C046
:108420004A6020F000407047602C0120FEB44246B4
:108430004B4654465D463EB400F021FD3EBC90469E
:108440009946A246AB46FEBC00F032F8704700BF2A
:1084500080EC200B7047C0EC200B704790EC200B99
:108460007047D0EC200B704785460D98DDF838E05A
:108470000F9B5DF8042B20E90C009DE8FE1F85464C
:1084800001BD4DF808ED0DF1080E4DF804ED2DE994
:10849000FF1F002102B4694681B003F038FADDF80D
:1084A00040E012B0704700009C4C02009C63020048
:1084B0004DF808ED0DF1080E4DF804ED2DE9FF1F04
:1084C000002102B4694681B003F088BA09488047A8
:1084D00009480047FEE7FEE7FEE7FEE7FEE7FEE7A6
:1084E000FEE7FEE7FEE7FEE704480549054A064BBE
:1084F00070470000094D010889810008502D0120B6
:1085000050AD0120508D0120508D012010B500F09C
:10851000E3FC001D10BD00BF5DEC010070B5A0FBC9
:108520000140B4F1805170F1000024BF002070BD03
:10853000204600F007F805001CBF214600F072FB42
:10854000284670BD70B5064600F0C2FC056806F10D
:108550000B0020F00704B4429CBF002070BD2B46E6
:108560006A68BAB11068A04210D304F108018842C9
:108570003CBF5068586007D35168101941601168BA
:10858000091B016058601460101D70BD13465268CD
:10859000002AE7D12146284600F0B2FC0028DED1AF
:1085A00070BD70B50446051F00F092FC0068002CF9
:1085B00014BF446870BD002C18BFAC423CBF2046BD
:1085C0006468F8D301680A18AA4218BF456003D14D
:1085D0002A6805461144016028684119A1421CBF60
:1085E0006C6070BD6168696021680844286070BD76
:1085F00053EA020C00F069802DE9F04B4FF00006C1
:10860000002B1FBFB3FA83F503FA05F424FA05F62D
:108610005E4012BF1643B2FA82F502FA05F4C5F1C4
:1086200020051EBF22FA05FC44EA0C04203556EA58
:10863000044C4FEA144418BF641C4FF000084FF07C
:108640000009904271EB030C39D3002919BFB1FA2C
:1086500081F701FA07F6B0FA80F700FA07F6C7F1DA
:1086600020071EBF20FA07FC46EA0C062037B6FB9F
:10867000F4FCA7EB0507103F07F01F0BCBF120061A
:108680000CFA0BFB2CFA06F644BFB3460026202F4B
:10869000A4BF5E464FF0000B5BEA060C08BF4FF02C
:1086A000010B19EB0B09ABFB027C48EB0608C01B66
:1086B00006FB02CC0BFB03CC71EB0C01C1E70B46B4
:1086C000024641464846BDE8F08B13B54FF0000026
:1086D0004FF00001AFF30080BDE81C407047000080
:1086E0007CB51D4616460C00009001D02044401E6B
:1086F000074B7B442A4669460190304600F00DFD49
:1087000005461CB10020694600F01AFD28467CBDD4
:10871000550A00000FB4044910B503AA029800F0EE
:108720001DFD10BC5DF814FB2C0200200FB400B539
:108730008DB010A9099000910B904FF0FF300A9076
:1087400000200C90064878440690064878446A4613
:1087500007900F9909A800F027FF0DB05DF814FBF2
:108760007F0E0000970E00002DE9FF5F1D464FF0C1
:10877000FF3B91464FF000085F46D5E90146A969E5
:1087800001987F1C8847296A824688470028F6D1CD
:10879000BAF1FF3F0CD0002E24F4C06419DD60064E
:1087A00014D5BAF12B0F09D0BAF12D0F0ED103E079
:1087B000584604B0BDE8F09F44F48064A96901986C
:1087C0007F1C8847761E8246002E02DDBAF1300FEC
:1087D00003D0B9F1000F26D032E0A969761E0198C6
:1087E0007F1C44F400748847002E824605DDBAF1F0
:1087F000780F06D0BAF1580F03D0B9F1000F10D09E
:108800001EE0B9F1000F02D0B9F1100F18D1A9691B
:10881000761E01987F1C24F400748847824610203D
:1088200002E0082000E00A20814609E0A96908FB6F
:108830000908761E01987F1C44F40074884782461C
:10884000002E05DD4946504600F09AFE0028EDDA7C
:10885000E96901988847A00502D46FF00100A8E7F4
:10886000E00725D1600613D5600502D5C8F10000E8
:1088700000E0404629680A1D2A600968220501D5E2
:10888000087015E0220701D5088011E008600FE0AC
:108890002868011D29600068210502D580F8008044
:1088A00006E0210702D5A0F8008001E0C0F80080B2
:1088B00038467EE770B5064600F01AFB04680546A8
:1088C00030460A22002100F041FF2C6070BD2DE9E6
:1088D000F05F93460F4680460446002600F008FBF2
:1088E000D0F80090824614F8015B2DB1FFF70EFE20
:1088F0000068405DC007F6D12B2D02D02D2D1AD077
:10890000641E0021CAF800105A463946204600F07D
:108910007BFE014627B13868A04201D1C7F800802C
:10892000DAF80000022809D0CAF80090700505D5D1
:108930004842BDE8F09F46F48066E2E70846F8E763
:108940001BF0EEB801491BF07BBA00002C0200209E
:108950000B4910B5A1F17C020A4CC2E9371237214C
:1089600006E000EB104342F82130074B00FB0340C8
:108970000B1EA1F10101F4DC10BD0120E8E70000AD
:10898000002C0120E119D666CD0D01002DE9F04142
:10899000074615460E461020FFF7D4FD04000AD006
:1089A0006760C4E9026500F09FFA01682160046015
:1089B0000020BDE8F0810120FBE70000014A00F043
:1089C00029BF0000B4030020401ECAB210F8011FE6
:1089D0008A4202D00029F9D10020704740EA010301
:1089E000024630B59B0710D14FF0013400E008C2B9
:1089F00008C91D1B9D4315EAC41FF8D013F0FF01E1
:108A000002F8011B0DD01B0AF8E711F8013B002BFF
:108A100002F8013B05D011F8013B002B02F8013BA5
:108A2000F3D130BD10B5431C02E010F8011B71B149
:108A30008107FAD14FF0013202C88C1A8C4314EA34
:108A4000C211F9D0C01A0A0603D0C01E10BDC01A48
:108A500010BD0A0401D0801E10BD0902FCD0401ECA
:108A600010BD40EA010370B59B072ED14FF00136CF
:108A7000042A2AD308C810C99D1B9D43121F15EA5A
:108A8000C61517D0D8B2E1B2401A50EA056110D12C
:108A900098B2A1B2401A50EA05410AD123F07F40B2
:108AA00024F07F41401A50EA052102D1180EA0EBB4
:108AB000146070BDA342DBD018BA21BA884201D934
:108AC000012070BD4FF0FF3070BD0AB9002070BDAD
:108AD00010F8013B11F8014B63B1A3420AD1521EB9
:108AE00008D010F8013B11F8014B1BB1A34201D192
:108AF000521EEDD1181B70BD421E12F8013F002B13
:108B0000FBD111F8013B002B02F8013BF9D1704772
:108B1000032A40F2308010F0030C00F0158011F8A9
:108B2000013BBCF1020F624498BF11F801CB00F881
:108B3000013B38BF11F8013BA2F1040298BF00F8D5
:108B400001CB38BF00F8013B11F0030300F0258092
:108B5000083AC0F0088051F8043B083A51F804CBB9
:108B6000A0E80810F5E7121D5CBF51F8043B40F87F
:108B7000043BAFF30080D20724BF11F8013B11F88A
:108B800001CB48BF11F8012B24BF00F8013B00F8CE
:108B900001CB48BF00F8012B704710B5203AC0F058
:108BA0000B80B1E81850203AA0E81850B1E81850EE
:108BB000A0E81850BFF4F5AF5FEA027C24BFB1E82B
:108BC0001850A0E8185044BF18C918C0BDE810409C
:108BD0005FEA827C24BF51F8043B40F8043B08BFA5
:108BE0007047D20728BF31F8023B48BF11F8012B6C
:108BF00028BF20F8023B48BF00F8012B704701F066
:108C0000FF03114601B543EA032242EA024200F0A3
:108C10000BF801BD02F0FF0343EA032242EA0242DD
:108C200000F002B84FF000020429C0F0128010F0EA
:108C3000030C00F01B80CCF1040CBCF1020F18BF38
:108C400000F8012BA8BF20F8022BA1EB0C0100F0CB
:108C50000DB85FEAC17C24BF00F8012B00F8012B9E
:108C600048BF00F8012B70474FF0000200B51346D3
:108C700094469646203922BFA0E80C50A0E80C503C
:108C8000B1F12001BFF4F7AF090728BFA0E80C50ED
:108C900048BF0CC05DF804EB890028BF40F8042BE6
:108CA00008BF704748BF20F8022B11F0804F18BF53
:108CB00000F8012B704700004FF0013C50F8042BE6
:108CC00051F8043B9A4221D1A2EB0C03934313EADF
:108CD000CC1317D150F8042B51F8043B9A4215D10C
:108CE000A2EB0C03934313EACC130BD150F8042BE3
:108CF00051F8043B9A4209D1A2EB0C03934313EAC7
:108D0000CC13DBD04FF00000704700BFD01A01BA7F
:108D1000B1FA81F101F0180122FA01F0CB40C1F162
:108D20002001DBB2C0B2C01A2CFA01F3D11A914370
:108D300011EAC311E6D170477047704770470000D1
:108D400070B5064C7C44064D7D4403E02068204409
:108D50008047241DAC42F9D170BD0000EC430200F5
:108D6000F843020070B500F0A2FE4469054614B94C
:108D7000002000F05BFEE06904F12006401CE06189
:108D8000304600F0E1FD002801D0266803E02868A5
:108D900000F10100286002D04FF0000200E02268DC
:108DA0004FF000013046FFF751FB3046FFF769FBFB
:108DB000304600F050FE70B500F079FE446905467B
:108DC0000CB900F0A7FD6069401E606117D104F185
:108DD0002006304600F0B8FD21696961E56928B1D7
:108DE00004F17800266800F084FD01E00020206195
:108DF000002D04D13046BDE8704000F07DBE70BD4E
:108E000070B50546466A00F052FE0446284600F05A
:108E10009BFD20B12946606900F024FE07E0A5F122
:108E20002000C169491EC1612168491E2160416954
:108E3000491C4161016911B961690161606128469C
:108E400002F0E2FD304670BD70B5054600F02FFE21
:108E50000446284600F078FD38B12946A06900F0A4
:108E600001FEC169491CC16102E0A5F12000C16990
:108E7000012902D1A1698161A061012070BD70B595
:108E800000F015FE846905460CB900F043FD04F1BD
:108E90002006304600F058FD68B1E06926680128D8
:108EA00002D0401EE0610BE0A16904F17800A961E5
:108EB00000F01FFD04E0E069012801D1A069A8616C
:108EC000304670BD002300F037BE012300F034BEF1
:108ED00000487047882C012000487047A02C0120D2
:108EE00000487047B42C012000487047B82C01207E
:108EF00000487047802C01207047704770477047CA
:108F000038B504460A4600206946AFF300800028C1
:108F100008BF38BD02460099204601F0FFF8012045
:108F200038BD012002F0EBB9F8B5AFF3008005467B
:108F300000200C46102000BF0646A819A0420DD9FB
:108F4000324669460020AFF30080070008BF02F0F8
:108F5000D6F90098A04218BF0546C419FFF7B8FF1C
:108F600005600746F01D20F007004619284600F06E
:108F70000AF8B44208BFF8BDA21B31463868BDE804
:108F8000F84001F0CBB800210160C0E90110704742
:108F90001020704710B5FFF7ABFF006810BD10B58B
:108FA0000446FFF7A5FF046010BD70B5044685694F
:108FB0000068C10601D5302600E02026C00707D092
:108FC00070BDD4E9012130469047206A401C2062E0
:108FD0006D1EF6D570BD70B5044685690078C00772
:108FE00007D170BDD4E9012120209047206A401CA0
:108FF00020626D1EF6D570BD09684A0501D540B2E4
:109000007047C905FCD500B2704709684A0501D50B
:10901000C0B27047C905FCD580B2704770B50C4628
:109020000546012A05D02878800600D5EA69002384
:1090300002E0012305E05B1C934202D2E05C0028C1
:10904000F9D1A869E618C01AA861286A18442862EC
:109050002846FFF7AAFF04E0D5E9012114F8010B27
:109060009047B442F8D32846FFF7B5FF70BD000023
:109070002DE9F0410646002410687529314616A5F1
:1090800010D0FFF7B9FF002802DA404213A507E02D
:1090900031688A0701D512A502E0490704D511A558
:1090A000012401E0FFF7B1FF00210A2206F12407A5
:1090B00009E0B0FBF2FCB0FBF2F302FB1C00303025
:1090C00078541846491C0028F3D123462A463046D6
:1090D000BDE8F04101F08AB8000000002D0000005A
:1090E0002B0000002000000011680268006A530590
:1090F00001D508700AE0D30501D5088006E0130603
:1091000003D5C217C1E9000200E0086001207047E2
:1091100001694A1C02610878704700B58FB0CDE93B
:1091200001310021059105497944CDE9031011462B
:10913000684600F043F90FB000BD0000E5FFFFFFF7
:109140000A6802F8010B0A607047D1E900239A42CD
:1091500002D2531C0B60107070470000074B70B5B3
:109160000D467B44FFF7D9FF0446284602F08BF8F2
:1091700010B14FF0FF3070BD204670BDDBAC010078
:109180002DE9FF5F15468A460446DFF8AC80F844B7
:109190000027D8E900103E46CDE9001010E03AF86B
:1091A00016106A4602A802F083F8411C07D0217805
:1091B000890603D5E269391891420DD80744761C17
:1091C0002078800602D5E069B84205DDAE42E6DBD4
:1091D0003AF816000028E2D1A069C01BA061204621
:1091E000FFF7E3FED8E90010CDE90010002017E0FA
:1091F0003AF818106A4602A802F05AF8B0F1FF3F98
:1092000081460BD000250DF1080B05E0D4E90121C2
:109210001BF8050090476D1C4D45F7D308F1010080
:10922000B0428046E4DB206A384420622046FFF7E3
:10923000D2FEBDE8FF9F0000E62F02002DE9F041BD
:109240008046D21D22F007020025D2E90002F5294E
:1092500015A614D0011E72F1000106DA0023D0EB2E
:10926000030063EB020211A608E0D8F800108B0798
:1092700001D50FA602E0490701D50EA6012511462A
:10928000002408F1240704E000F062FF30323A5570
:10929000641C50EA0102F7D12B4632462146404673
:1092A000BDE8F04100F0A2BF000000002D0000006A
:1092B0002B0000002000000030B4002100F1240445
:1092C00008E002F00705D208303542EA4372DB08B5
:1092D0006554491C52EA0305F3D10468002310A227
:1092E000250707D5A40600D421B1C46901230DA226
:1092F000641EC46130BC00F079BF10B5044621463D
:109300001068FFF782FE02462046BDE810400023A9
:10931000D2E7D21D22F00701D1E90023CCE70000FB
:109320000000000030000000F0B40D46018809057F
:1093300002D5214C7C4402E01F4C7C440E340021B9
:1093400000F1240608E002F00F071209E75D42EA87
:1093500003721B097754491C52EA0307F3D10278C0
:109360000023120704D5702D06D009B10223113451
:109370002246F0BC00F03ABF01231034F8E770B584
:1093800004460D4621461068FFF73FFE0246294677
:109390002046BDE870400023C6E7D21D22F0070337
:1093A000D3E90023C0E70368126843F02003036099
:1093B0000823C3610023B7E7482E02002DE9F05FC0
:1093C000894604464FF0000ADFF874B1FB44C0F848
:1093D00020A02046E1688847002874D0252806D0C0
:1093E000D4E901219047206A401C2062F1E7002661
:1093F0005F462046E16888472028054607DB312D77
:1094000005D2781910F8200C08B10643F1E7B0072F
:1094100001D526F00406C4F81CA00027C4F818A043
:109420002A2D09D0284617F00FFF38B304EB870820
:10943000303DC8F8185019E059F8041B204604EBD9
:1094400087029161E1688847012F054618D1E069DC
:10945000002820DA26F020061DE0D8F8180000EBDE
:10946000800005EB40003038C8F818002046E1685D
:109470008847054617F0E8FE0028EED1012F0AD0F4
:109480002E2D08D12046E16888477F1C0546022F13
:1094900046F02006C4DBA069002803DA404246F00B
:1094A0000106A061F00701D026F010066C2D0BD04C
:1094B000682D09D04C2D39D06A2D35D0742D35D07A
:1094C0007A2D33D016E038E0E1682F4620468847F1
:1094D000B842054609D16C2F26D04FF48060E16870
:1094E000064320468847054604E06C2F1AD04FF407
:1094F000807006430DB3A5F14100192802D820352C
:1095000046F400664A462946204626604E46FEF747
:1095100095FE80B101280BD0F61D26F0070000F162
:10952000080956E74020E4E78020D8E70020D6E786
:1095300006F104094DE7284652E7206ABDE8F09F8E
:10954000D82D02000FB400B58DB010A9099000917C
:109550000B904FF0FF300A9000200C9006487844A2
:109560000690064878446A4607900F9909A800F0CB
:109570001BF80DB05DF814FB670000007F000000D1
:109580003A2800D2303820F02002412A01D3A2F13B
:109590003700884201D34FF0FF3070470268114412
:1095A0001378016018467047D160054979445161CC
:1095B00004497944116200211161114601F028BA71
:1095C000EDFFFFFF250C0000426842B1016811F871
:1095D000013B23B1521EC0E9001218467047012119
:1095E000C160881E704742685AB1C368016843B9B8
:1095F00083688B4205D0491E521CC0E9001200202E
:1096000070474FF0FF3070472DE9F05F82461546F6
:109610008B4600270AF10104B9460078302801D0B2
:109620009DB113E014F8010B0127782803D05828C6
:1096300001D045B10AE00DB1102D07D1002714F873
:10964000010B102502E0082500E00A250026B0469F
:109650000EE005FB080005FB06F101271FFA80F864
:1096600001EB1046B6F5803F00D3B94614F8010B64
:109670002946FFF785FF0028EBDABBF1000F05D084
:109680000FB1641E00E05446CBF80040B9F1000F62
:1096900006D0FFF72DFC02210160C81EBDE8F09F37
:1096A00048EA0640FAE700000FB4002300B589B08D
:1096B0000CA900910B99CB60214B7B440693214B65
:1096C0007B44079304236FF00042CDE901321E4A28
:1096D0007A446B460892024600201FF089F909B0CF
:1096E0005DF814FB70B506464FF0FF3015460C468A
:1096F000324686B00091CDE9010169460020049010
:1097000004A8FFF7D1FF02460498211825B108B13B
:10971000084600E020462860049800280DD0002A62
:1097200002DD0098884208D03246081B6946009442
:10973000CDE9010404A8FFF7B7FF06B070BD000033
:109740000BFFFFFF23FFFFFF070B00002DE9F04792
:1097500091460F4680460446002614F8015B2DB161
:10976000FEF7D4FE0068405DC007F6D12B2D02D075
:109770002D2D18D0641E4A4639462046FFF744FF77
:1097800027B13968A14201D1C7F800804FF0020427
:1097900071050BD54042002803DDFFF7A9FB0460EB
:1097A000A007BDE8F08746F48066E4E70028F8DA11
:1097B000FFF79EFB04606FF00040F2E710B5002059
:1097C00001F096FDFEF7A6FDBDE81040012000F077
:1097D00097BC2DE9F0410646FFF786FB80464546DB
:1097E00013E016B1E068B0420ED120682860D4E9D9
:1097F0000101D8F8007088472046FEF7D2FED8F85D
:109800000000B842EBD100E025462C68002CE8D1DE
:10981000BDE8F0812DE9F04115460E46040002D165
:109820002C6804B90BA4204601F09AFD044420786A
:1098300070B127463146384601F082FD0444207855
:1098400010B1002004F8010B38462C60BDE8F0810F
:109850000027F9E7000000000022CBB210F8011B3E
:10986000994200D1421E0029F8D110467047431A90
:1098700028BF9A427FF64CA9032A1044114440F2B3
:10988000268010F0030F1EBF11F8013D521E00F894
:10989000013D10F0030F7FF4F6AF11F0030301F068
:1098A000AC85083AC0F00B8051F8043D083A51F8F5
:1098B00004CD40F8043D40F804CDFFF7F3BF121D7E
:1098C0005CBF51F8043D40F8043DAFF30080D2077F
:1098D00024BF11F8013D11F801CD48BF11F8012C4A
:1098E00024BF00F8013D00F801CD48BF00F8012C6D
:1098F000704710B5044600F0DAF8783CC06921469C
:1099000001F0EAFD002804D12046BDE81040FEF732
:1099100048BE10BD10B500F0CAF8016919B10022A7
:109920000261884701E080688047FFF747FF000039
:1099300002680B689A4205D140684968884201D1A3
:10994000012070470020704710B50349FFF7F0FF72
:1099500080F0010010BD0000BCC302082DE9F14DEC
:10996000D0E90C8581B00646D0F828A000F09FF819
:109970000446A6F120073046FFF742FA3046FFF7CB
:10998000E3FF08B1606800E0B868206101F076FE8E
:10999000BDE8FC8DFFF734FA6669BE4202D1FFF7DD
:1099A0000AFA0DE030696061FFF705FA05E0FFF79C
:1099B00027FAFFF7AFFFFFF7FEF9606930616661D4
:1099C00000273C4606F1200B11E02E686B46002272
:1099D0003146584601F0C6FD08B1FFF7C3F93146DC
:1099E000104814F00FFC00B101274544641C544595
:1099F000EBD38FB1684614F0E5FD042001F028FD9B
:109A0000694614F0D7FD0446684614F0EAFD064A9C
:109A10000449204601F08BFD584600F007F8FFF797
:109A2000CAF9B5E764C60208E3E5010870B5054662
:109A300000F03DF804461DB12846FFF785FF08B148
:109A4000A06801E055F8140C206101202073BDE8E6
:109A50007040FFF75FBF040001D0FFF7D1F9204647
:109A6000FFF7E4FF70B504000D4609D004F12000B3
:109A7000FFF75EFF20B12068A84201D1204670BDEB
:109A8000002001F0E5FCD5E90023A0F15801C1E96F
:109A90000023002240F85C2C40F8642C40F8682C2D
:109AA00040F8785D70BD000010B5FFF787FE70B517
:109AB00000F030FB04680546A4B92020FEF742FD03
:109AC000040011D0094900202C60C4E900010849B4
:109AD000A1602073206160610649A06109B101F0B5
:109AE000E7FCE061204670BDFFF768FE97B600080E
:109AF000A99A0008000000008268002A02D00146EE
:109B00000120104770470000017A51B9417A89B1AC
:109B1000491E417241680A1D4260096801600421C2
:109B20000172C9B2491E017201680A0E0902016080
:109B300010467047B02070472DE9FF4D8CB05FEAAA
:109B4000000B4FF0000016460D4607900990059057
:109B500008900DD0BBF1010F0AD0BBF1020F01D06C
:109B6000002204E2A86BA864E86B04902C6C0FE060
:109B700095F85000C007E86C049078D10F9818B1A0
:109B800004980068C0F30740049901EB800442E0A8
:109B90000F98022811D02788002F68D06088241DD4
:109BA00000F00102394662F35F0161B1012934D04E
:109BB00002297DD00329EBD12FE12768002FECD0BB
:109BC00060680834ECE7BBF1000F24D0A96C0023D7
:109BD00001EB000806A9009130460F22194601F05A
:109BE00074FD0698804516D808EB0701814212D90A
:109BF000A96CA963201D0499C5E90F102846FFF739
:109C000023F90028ACD020680F2240F31E00044442
:109C10003046049423E0241DBAE7BBF1000F27D09F
:109C200006A90023009130460D22194601F04DFD92
:109C30000698296A88426ED1E86AA0426BD12068F2
:109C400004A940F31E0004440023009130460F2273
:109C50000494194601F022FD30460022049504A91F
:109C600000230091194601F019FD22463DE2D6E09D
:109C7000A96C002301EB00080AA9009130460F22CD
:109C8000194601F022FD0A987F1E804543D808EB53
:109C9000070181423FD96768B81C0ED0781C0ED0EE
:109CA000206806ABC20F3946284601F05BFC00E095
:109CB00033E078B302281DD004E0022257E105F119
:109CC0005800069004A90023009130460D22194641
:109CD00001F0FBFC0498EC62286206986862206838
:109CE000022140F31E0002192846FEF7AFFB3A4658
:109CF00080215FE004A90023009130460D2219461F
:109D000001F0E3FC0498EC6228620698A86205F171
:109D10002800E3E7FFE708343AE72168069121F0DD
:109D20000048BBF1000F10D00AA900230091304673
:109D30000D22194601F0C9FC0A98296A884240D1CF
:109D4000E86AA0423DD101203CE0A96C401E01EB35
:109D5000000A0AA90023009130460F22194601F09B
:109D6000B4FC0A9882453AD80AEB0701814236D9F9
:109D700004F1040A00270AE06B4600222846DAF8BC
:109D8000001001F0EFFB20B90AF1040A7F1C4745DF
:109D9000F2D3474523D104A90023009130460D2278
:109DA000194601F092FC0498EC6228620020D34A24
:109DB000022168622846FEF749FB062010B0BDE884
:109DC000F08D002058B10020C5E90A8004202863E6
:109DD000201D68630698404506D10120079006982B
:109DE000404515D1002014E004EB8800002250F813
:109DF000041F134641F31E010C1804A900913046BC
:109E00000495114601F04AFC30460F22049465E1A6
:109E1000042000EB88000444FDE60122A7E004983A
:109E2000006801900498001D02900F9810B30198EB
:109E3000000C8DF80D0001980004019002208DF8AF
:109E40000C0001A8FFF760FE0446B0281AD03F2C92
:109E500041D800F03F01042000EB810706A90D2442
:109E60000023009130462246194601F02EFC069848
:109E7000384442E000208DF80D0001980002019066
:109E80000320DCE70998B0B905980028C5D004A8DC
:109E9000002300900E221946304601F016FC04996A
:109EA000059105A90023009130460F22194601F0C3
:109EB000F5FB012008900798002870D0002204A923
:109EC0000091304613460495114601F0E7FB0898CF
:109ED000002878D0FEE07F2C19D800F03F01042044
:109EE00000EB810706A90D2400230091304622468D
:109EF000194601F0EAFB0698C01B049004A8002351
:109F0000009022461946304601F0C8FB99E78F2C95
:109F10001AD80007040C01A8FFF7F6FD54EA001454
:109F20003FF4CBAE002322461946304601F0E4FB55
:109F300008B103221BE0200401D501200990600430
:109F4000E4D5012005907CE79F2C16D800F00F0285
:109F50000D2A0BD00F2A09D006A9002300910D2449
:109F60003046194601F0B1FB0698C6E704220121EC
:109F70002846FEF76BFA092020E7AF2C10D804F032
:109F800007000121401C81400A01103A200703D537
:109F9000012042F4804205900023194658E0AAE0CF
:109FA000B72C35D8B12C0FD0B22C15D0B328DDD1B9
:109FB00001A8FFF7A9FD00F00F0100F0F000491C17
:109FC00041EA00322BE073E001A8FFF79DFD02009B
:109FD000CCD00F2AE0D9C9E700273C4601A8FFF7FB
:109FE00093FD00F07F01A1400F43000601D5E41D61
:109FF000F4E706A90D2400230091304622461946B5
:10A0000001F063FB069800EB870000F5017074E730
:10A01000BF2C07D800F00700401C40F400220123A9
:10A02000012115E0C72C25D809D101A8FFF76CFD47
:10A0300002009BD00F2A99D80023042108E0C62CE7
:10A040000DD000F00700401C40F4202203231946E5
:10A05000304601F051FB00283FF458AF69E701A8F2
:10A06000FFF752FD00F00F0100F0F000491C41EA3B
:10A070000032EBE7C82C0BD0C92C09D0CF2CAAD9C1
:10A08000D72CA8D800F00700401C40F400220DE0B7
:10A0900001A8FFF739FD00F00F01491C00F0F000A6
:10A0A00041EA0032C82C01D102F580120523B7E73E
:10A0B00004A8002300900F221946304601F005FB4A
:10A0C0000499059105A90023009130460E221946F6
:10A0D00001F0E4FA094930460F22049104A9002353
:10A0E0000091194601F0DAFA044A03212846FEF7E6
:10A0F000ADF9072062E6082060E600005D990008DF
:10A1000001491820ABBEFEE7260002000048704758
:10A11000802C012000487047BC2C01200346406879
:10A120008C46002818BF88423CBF03464068F8D3DD
:10A1300018681844884207D00CF1030020F007008B
:10A14000001D411A521A0146081D0A60FEF729BA7D
:10A1500030B5B0F10A024FEA900E71F100034EEAF9
:10A16000817EB0EB0E0061EB91014FEA101E4EEACA
:10A17000017E10EB0E0041EB11114FEA102E4EEA5A
:10A18000016E10EB0E0041EB11214FEA104E4EEA2A
:10A19000014E10EB0E0041EB1141401841F100015E
:10A1A0004FEAD00040EA41704FEAD10110EB800540
:10A1B0004FEA810444EA907444EB01046D1944EBC6
:10A1C0000404521BA3414FF0000348BF0A3200D5DC
:10A1D00030BD401C41F1000130BD10B50446FEF712
:10A1E00095F90068005D00F0010010BD2DE9F04711
:10A1F0000D4699469246044600F1240801688806F7
:10A2000004D5E06921F01001216000E00120A8429E
:10A2100001DD471B00E00027A1697A1902EB090064
:10A22000081AA0612078C00602D42046FEF7BDFEC1
:10A23000002608E0D4E901211AF806009047206AB8
:10A24000401C761C20624E45F4DB2078C0060AD5FF
:10A250002046FEF7AAFE06E0D4E90121302090470F
:10A26000206A401C2062381EA7F10107F4DC07E0D9
:10A27000D4E9012118F805009047206A401C2062AB
:10A28000281EA5F10105F3DC2046FEF7A4FE207888
:10A29000000602D50220BDE8F0870120FBE77047E9
:10A2A0002DE9FF4F0C461E464FF0FF378BB0D2E929
:10A2B0000001DDF860800A908A46C1F30A5505B9AD
:10A2C0003D46002108464FF00000BAF1000F00F4AF
:10A2D000400005DA00EB80004FF4400101EA500035
:10A2E0004FEA9059B9F1010F00DDB9460A9850EADA
:10A2F0004A000ED044F61050A5F2FF3545432F1406
:10A30000B8F1000F1ED07542291E1EDDC9F10002F2
:10A310001CE0B8F1010F4FF0000001D0302103E044
:10A32000F24305E02154401CB042FBDB30460022E2
:10A33000002121540B99C1F80880C1E900200FB019
:10A34000BDE8F08FBD1B6D1CDEE74A4600DA6942AE
:10A3500006A801F07BFE06AB93E8070003AB83E899
:10A36000070050460A9902F00CFB8DE80700A0F5A3
:10A3700000501F3800900398002D0ADD42F21F01A3
:10A380004A460844002303A90390684602F0B8FD3A
:10A3900009E0A0F500504A461F38002303A90390A6
:10A3A000684602F0D7FD8DE807000004000C03D0DA
:10A3B0004FF0FF30410800E01046B8F1000F03D025
:10A3C0000022009215461EE0751E05D4FFF7C0FE60
:10A3D000303262556D1EF9D5B3460122084302D0D2
:10A3E00000227F1C04E02078302801D100227F1E4B
:10A3F000002A099784D01DE0112D07DAFFF7A8FE87
:10A40000303262556D1C50EA0102F5D1084302D08A
:10A410000098C8B10EE00021681E05E0235C625C74
:10A4200063542254401E491C8142F7DBAB46A81BF3
:10A43000401E0990002004F80B000B98099AC0F800
:10A440000880C0E9002B7AE711264FF0000857E793
:10A450002DE9F04F88460446D21D22F0070191B045
:10A46000D1E90001CDE90A0114F0E7FF02460B989B
:10A47000C00F01D02D2007E02068810701D52B20D7
:10A4800002E0202101EAC000032A099001D0072A36
:10A4900005DB03464146204601F00CFB0BE120782A
:10A4A000800601D5E06900E00620B8F1650F81461D
:10A4B00006D0B8F1660F18D0B8F1670F70D131E04F
:10A4C0000020B9F1110F009001DB112301E009F127
:10A4D00001030AAA01A90CA8FFF7E2FEDDE90C704E
:10A4E000002609F10105834647E001204B46009014
:10A4F0004FF000470AAA01A90CA8FFF7D1FEDDE939
:10A500000DB00C995D46002610B909F101000D1837
:10A51000B9EB050003D4C0F1FF3609F10105A5EB45
:10A5200009002BE0B9F1010F01DA4FF00109002019
:10A53000B9F1110F0090484601DD112300E00346F8
:10A540000AAA01A90CA8FFF7ABFEDDE90C704D4685
:10A5500000268346207800070AD4AB4500DA5D4622
:10A5600001A8012D04DD411911F8011C302907D083
:10A570004F4502DA17F1040F04DA012082460FE09A
:10A580006D1EEEE7002F02DCED1B3E4403E0781C5D
:10A59000A84200DD7D1CB81B00F1010A4FF0004706
:10A5A0002078000703D4AA4501DB4FF0FF3A0021D1
:10A5B000B7F1004F0DF143088DF8431024D002206D
:10A5C0002B23002F01DA7F422D230A21021EA0F146
:10A5D000010000DC5FB197FBF1FC97FBF1F201FB9E
:10A5E0001C7C17460CF1300C08F801CDEEE7A8F101
:10A5F000010003702188090501D5452100E065218E
:10A60000A0F1010800F8011C09980FA9A1EB0807A7
:10A61000FF1D00B10120411901EBEA70A169384426
:10A62000081A401EA0612078C00602D42046FEF71A
:10A63000BCFC099828B1D4E901219047206A401C4C
:10A6400020622078C00622D52046FEF7AEFC1EE030
:10A65000002E04DBB34502DD01A8805D00E0302060
:10A66000D4E901219047206A401C2062761CAAF19F
:10A6700001005FEA000A0AD1FEF72EFCC0680168FB
:10A68000405CD4E901219047206A401C2062281ECA
:10A69000A5F10105DCDC07E0D4E9012118F8010B84
:10A6A0009047206A401C2062381EA7F10107F3DCA6
:10A6B0002046FEF790FC032011B041E62DE9F04F53
:10A6C00004460D46D21D22F0070089B0D0E900975C
:10A6D0004846394614F0B1FE0246F80F01D02D234A
:10A6E00007E02068810701D52B2302E0202101EA41
:10A6F000C0038DF820300BB1012000E00020032AB8
:10A70000824601D0072A04DB2946204601F0D2F90F
:10A710003FE12078800601D40D2500E0E569C7F30C
:10A720000A560D2D49DA00214FEA175B08464FF013
:10A730000000002F00F4400007DA00EB80004FF427
:10A74000400100EBD07001EA60008115012901DDB4
:10A750004FF0FF3100224FEA850CBCF1180F06D3F1
:10A760001346ACF118004FF08052C24003E04FF4A2
:10A77000801323FA0CF30CF10C0CBCF1200F04D362
:10A78000ACF1200C09FA0CF001E007FA0CF00029FA
:10A790004FF0004801DD18B90FE00ED140450CD351
:10A7A00019EB02095F4121B9404502D19F4329EAD3
:10A7B0000209BBEB175F00D0761C2088000502D58C
:10A7C0007B48784402E07A487844193808AA302354
:10A7D00002F80A30037C0AF10101002E0AF1020A94
:10A7E00053546A4602DC4FF0300101E04FF0310172
:10A7F0004FF001088DF8001002D0A6F2FF3603E0FA
:10A8000059EA470100D06B4E002D02DC2178090780
:10A8100004D54FF002082E218DF80110C446002106
:10A820000BE0C7F303433F01C35C491C6D1E02F8F4
:10A830000830052908F1010801DA002DF1DC0021BA
:10A840000CE000EB1973491C1B786D1E082902F8F7
:10A8500008304FEA091908F1010801DA002DF0DC8F
:10A8600021688B0602D516E0A8F10108E04505DD58
:10A8700002EB080313F8013C302BF5D0B8F1000FC0
:10A8800009DD02EB080313F8013C2E2B03D1090765
:10A8900001D4A8F10108002D05DD3E2102F80810C1
:10A8A0006D1E08F10108407C002E02F8080008F136
:10A8B000010804DA2D20764202F8080002E02B207D
:10A8C00002F808000A214FF47A70864208F1010864
:10A8D0000BDB96FBF0F3303302F8083096FBF0F315
:10A8E00008F1010800FB136601E0642E0CDB642014
:10A8F00096FBF0F3303302F8083096FBF0F308F1E2
:10A90000010800FB136601E00A2E06DB96FBF1F05E
:10A91000303002F8080008F1010896FBF1F001FB65
:10A920001060303002F80800A16908F1010808EB56
:10A93000050202EB0A00081AA0612078C00602D4C2
:10A940002046FEF732FB216A08AE01EB0A002062C6
:10A9500004E0D4E9012116F8010B9047BAF1010A8D
:10A96000F7D22078C00602D52046FEF71EFB6E46C1
:10A9700009E016F8010B3E280FD0D4E901219047D9
:10A98000206A401C2062B8F10108F2D22046FEF78E
:10A9900022FB09B00320BDE8F08F206A2844206222
:10A9A00003E0D4E90121302090476D1EEBD3F8E796
:10A9B000351D020002FCFFFF10B5436913B1AFF370
:10A9C000008001E0FEF72AFB012010BD127800F1A3
:10A9D00024010A7000224A700122EDE711684FF04D
:10A9E000FF32E9E710B5436913B1AFF3008001E02E
:10A9F000FEF7C6FB012010BD128800F124018284FD
:10AA00000022C2840122EDE711684FF0FF32E9E72E
:10AA10002DE9F34F4FF0000A0C4656468DB0012049
:10AA20000C9001F10C000B9062690B98012190478A
:10AA3000051E2DD0252D2CD0216A8847C0B1626912
:10AA40000B9801219047216A88470028F7D1626955
:10AA5000411E0B98904700E0761CA1690D9888472D
:10AA6000216A88470028F7D1E1690D988847DBE71C
:10AA7000A1690D988847A842074601D1761CD3E703
:10AA8000E1690D9888477F1C02D1BAF1000F6FD0A1
:10AA90006BE162690B9800273D46394690472A28AA
:10AAA00004D162690B98012190470125DFF8D0821B
:10AAB00062690B9801219047A0F130010A290AD25E
:10AAC0004745E5DC07EB870100EB4107303FDFD46A
:10AAD00045F01005ECE7E90601D46FF000476C285B
:10AAE0000AD04C2814D0682815D06A280DD07428B4
:10AAF0001CD07A281AD01DE062690B98012190477A
:10AB00006C2802D045F0040514E045F002050DE084
:10AB100045F020050AE062690B98012190476828FA
:10AB200002D045F0080505E045F4006562690B9820
:10AB300001219047C4E9015765283DD019DC582808
:10AB40007AD00CDC452837D004DC252826D04128D3
:10AB50009ED131E046282FD0472899D12CE05B28A0
:10AB600077D0612828D063287CD0642823D15AE08C
:10AB7000F6E06F2848D008DC66281DD067281BD077
:10AB8000692821D06E2816D127E0702845D0732877
:10AB900068D0752847D078280DD14DE0A1690D986F
:10ABA0008847252805463FF469AFE1690D98884735
:10ABB0006D1C3FF46AAFD8E00D9923466A466FF0EA
:10ABC00001001DF015FFC5E045F0400023464FF0A1
:10ABD00000026060A80736D43EE0E8077FF447AF84
:10ABE0002068011D21600068290501D506701BE75A
:10ABF000290701D5068017E7A90703D5F117C0E992
:10AC0000006111E706600FE745F0400023464FF072
:10AC100008026060A80716D41EE040F60E0125EA7F
:10AC20000100606016E045F0400023464FF00A0244
:10AC30006060A80707D40FE045F040006060A807F7
:10AC400008D5234610220D996FF0010000F09AF804
:10AC500080E007E0102223460D996FF00100FDF718
:10AC600083FD77E04FF0000963284F46C8464B4606
:10AC7000CB4602D05B2806D038E0E80601D401209C
:10AC8000A060012732E06269D4F80CB00B98012172
:10AC900090475E2807D14FF0010949466269D4F810
:10ACA0000CB00B989047216939B900210A4603ABD3
:10ACB00043F82120491C0829FADBD8B3216949B39C
:10ACC00008F1010862690B98012190475D28F4D1D1
:10ACD000B9F1000F09D0002003A951F82020D24378
:10ACE00041F82020401C0828F7DB03AB206900282E
:10ACF00020794FEA40701ED05B462246CDF8008096
:10AD0000CDE901970D9900286FF0010020DA00F0DD
:10AD100052FA1FE0C11703AA00EBD1614B1121F0D9
:10AD20001F0102EB8302411A13680120884003438C
:10AD30001360C7E719E00D99224600286FF0010063
:10AD4000009702DA00F039F904E000F0C6F801E0FB
:10AD500000F0BDF900280ADA401C06D10C9820B199
:10AD60004FF0FF300FB0BDE8F08F5046FAE7E9072B
:10AD700001D10AF1010A064400200C9054E60000BB
:10AD8000CCCCCC0C2DE9FF4F1C4691464FF0FF3543
:10AD900081B000218A468846D4E90167A1690298FA
:10ADA0006D1C8847216A834688470028F6D1BBF18D
:10ADB000FF3F0CD0002F26F4C0661ADD700615D5B3
:10ADC000BBF12B0F0AD0BBF12D0F0FD104E04FF0D8
:10ADD000FF3005B0BDE8F08F46F48066A1690298A7
:10ADE0006D1C88477F1E8346002F02DDBBF1300FAC
:10ADF00003D0B9F1000F2AD025E0A1696D1C02989B
:10AE00007F1E46F400768847002F834605DDBBF1A0
:10AE1000780F06D0BBF1580F03D0B9F1000F10D056
:10AE200011E0B9F1000F02D0B9F1100F0BD1A169F7
:10AE30006D1C02987F1E26F40076884783461020FA
:10AE400000E0082081464FEAE970009017E00A20F0
:10AE5000F8E74346AAFB0928DDF800C07F1E03FB84
:10AE6000098046F4007605F101050AFB0C0112EB9E
:10AE70000B0A029841EBEB78A16988478346002FC3
:10AE800006DD49465846FEF77BFB5FEA000BE0D53E
:10AE9000E16902988847B00502D46FF0010098E795
:10AEA000F00718D1700610D55146700505D500235E
:10AEB000D1EB030163EB080200E042462068031D6A
:10AEC00023600068C0E9001205E02068011D2160D0
:10AED0000068C0E900A828467BE72DE9FF5F4FF036
:10AEE00000089946144646469169D2E901A7DDF863
:10AEF00038B001988847054659EA0B0005D009E0AB
:10AF0000A1690198761C88470546216A284688472A
:10AF10000028F5D1681C03D05FEACA7005D015E09F
:10AF20004FF0FF3004B0BDE8F09F2068011D2160A4
:10AF3000D0F800800AE05FEACA7001D108F8015B2E
:10AF4000A169761C01987F1E88470546002F1ADDEF
:10AF5000681C18D0B9F1000F0DD0E81705EBD060D0
:10AF6000421120F01F0059F822102A1A01209040A7
:10AF70000142E0D107E0BBF1000FDCD12846216A95
:10AF800088470028D7D0E16901988847BBF1000FB6
:10AF900007D1002E05DD5FEACA7002D1002188F8D2
:10AFA0000010A068B84203DDBBF1000F03D017B159
:10AFB0006FF00100B6E73046B4E72DE9FF4F4FF0E0
:10AFC00000089A461446C146464683B0D2E901B706
:10AFD000CDF80080CDF804809169049888471099D5
:10AFE00005465AEA010005D009E0A1690498761CDB
:10AFF00088470546216A284688470028F5D1681CFD
:10B0000003D05FEACB7005D02AE04FF0FF3007B0E5
:10B01000BDE8F08F2068011D2160D0F800801FE09E
:10B0200002A86A46E9B201F099F9411C07D0801CD8
:10B0300009D04FF000095FEACB7007D00AE0E16960
:10B04000049888473EE04FF0010904E0BDF808107D
:10B0500028F8021B7F1EA1690498761C88470546C4
:10B06000002F1ADD681C18D0BAF1000F0DD0E817B8
:10B0700005EBD060421120F01F005AF822102A1A66
:10B08000012090400142CBD107E010980028C7D1A1
:10B090002846216A88470028C2D0E1690498884779
:10B0A000B9F1000F0ED1109830B9002E04DD5FEA1F
:10B0B000CB7001D1A8F80000A068B84202DD10985A
:10B0C00018B117B16FF00100A1E730469FE72DE9F5
:10B0D000FF4F4FF000089B461446454683B0D2E927
:10B0E0000196CDF80080CDF804809169DDF848A084
:10B0F0000498884707465BEA0A0005D009E0A16981
:10B1000004986D1C88470746216A384688470028FE
:10B11000F5D1781C03D05FEAC97005D01BE04FF071
:10B12000FF3007B0BDE8F08F2068011D2160D0F826
:10B13000008010E05FEAC97007D16A464046B9B2A4
:10B1400000F0B6F8411C31D08044A1696D1C049810
:10B15000761E88470746002E14DD781C12D0BBF1FE
:10B16000000007D03B46DDE9101200F05FFF002829
:10B17000E0D107E0BAF1000FDCD13846216A8847F8
:10B180000028D7D0E16904988847BAF1000F06D1AA
:10B19000002D04DD5FEAC97001D188F80000A068C5
:10B1A000B04203DDBAF1000F03D016B16FF0010019
:10B1B000B7E72846B5E72DE9FF5F9B461446002711
:10B1C0003D469169D2E90196DDF840A00198884793
:10B1D00080465BEA0A0005D009E0A16901986D1C70
:10B1E00088478046216A404688470028F5D1B8F153
:10B1F000FF3F03D05FEAC97005D014E04FF0FF3085
:10B2000004B0BDE8F09F2068011D216007680AE0D6
:10B210005FEAC97001D127F8028BA1696D1C019802
:10B22000761E88478046002E15DDB8F1FF3F12D00C
:10B23000BBF1000007D04346DDE90E1200F0F6FE38
:10B240000028E5D107E0BAF1000FE1D14046216ABC
:10B2500088470028DCD0E16901988847BAF1000FDF
:10B2600005D1002D03DD5FEAC97000D13880A068E8
:10B27000B04203DDBAF1000F03D016B16FF0010048
:10B28000BEE72846BCE7007B00F080007047000066
:10B290000A460146014800F0D2BF0000E02C012020
:10B2A00010B5024800F044FF004810BD0C2D0120ED
:10B2B00070B516460C460546FDF728F9036893F865
:10B2C0000101012806D0FF2C0FD8185D68B10120BC
:10B2D0002C7070BDD3F807013246214603F20713E4
:10B2E00003442846BDE8704018474FF0FF3070BD5A
:10B2F00010B501F087F8BDE8104001F07EB810B538
:10B3000001F098F8BDE8104001F077B870B50C4630
:10B310000546FDF7E1FD0068016859B1421815F8CE
:10B32000010B14F8013B115CD35C08B19942F6D0D3
:10B33000C81A70BD21462846BDE87040FDF7BCBC68
:10B3400030B503461D781DB10A4603E0AC4201D179
:10B35000181A30BD12F8014B002CF7D15B1CF1E735
:10B3600030B503461D783DB10A4612F8014B1CB1B9
:10B37000AC42FAD15B1CF5E7181A30BD2DE9F0415B
:10B38000144605460E460846FDF74CFB0746FDF7FA
:10B39000A3FD0168086860B101443CB116F8010BD7
:10B3A00088B1085C641E05F8010BF7D13846BDE88A
:10B3B000F081002CFAD016F8010B002805F8010BDB
:10B3C000F4D0641EF5E700202870EFE701B5FDF723
:10B3D0009FFB01BD431A28BF9A427DF6DEAB1044A5
:10B3E00010F0030F11441EBF11F8013D521E00F86A
:10B3F000013D10F0030F7FF4F6AF103AC0F00A8061
:10B4000010B531E91850103A20E91850BFF4F9AFDF
:10B41000BDE81040530724BF31E9081020E90810A7
:10B4200044BF51F8043D40F8043D12F0030F08BF3B
:10B430007047D20728BF31F8023D48BF11F8012CF0
:10B4400028BF20F8023D48BF00F8012C70470000DB
:10B4500070B50446FEF72BFB783405462646204699
:10B46000FDF770F8040007D13146E86900F029F8CB
:10B47000040001D1FEF7DAFA0AA104F12000D1E9B3
:10B480000021C0E900210021A162E1626161216126
:10B49000A161E161A868E0606868A06004F17800DB
:10B4A00070BD000041524D00432B2B0000000000F6
:10B4B00010B58820FDF746F8002801D00021017062
:10B4C00010BD802902D808B1017809B10020704769
:10B4D000012100F8081B704718B100F108029142E1
:10B4E00001D00020704700210170704773B50C46F1
:10B4F000FEF7DDFA54F80C1C203C31B1E169491E1D
:10B50000E1610168491E01607CBD616804F1780554
:10B5100009B1284688472846BDE87C40FEF7E9B9CE
:10B52000FDF76EFC2846FEF7E4F9FDF71BFC70B54D
:10B530000D46A0F158044C49A160012140F85C1C63
:10B5400040E91E52FEF7B3FA01682A46491C016021
:10B5500000212046FCF77AFF2046FCF792FF2046A8
:10B56000FEF779FA2DE9FF4D9A4693460E4680463E
:10B57000FEF7EAF9002875D1A8F12000012708F1AB
:10B58000580805680024CDF808803146284612F096
:10B5900039FE10B1CAF8008062E0284613F03BFF84
:10B5A0000190304613F037FF00903049019812F0B7
:10B5B00029FE20B92D49009812F024FE20B1DDE9C2
:10B5C000001012F02FFE08BB2849019812F01AFE55
:10B5D000C0B1307A297A00F0030001F00301641C45
:10B5E00031EA00023ED130EA010100D077B1C00754
:10B5F00000D100270298ED68F6680028C5D00068E1
:10B600000290C2E7012C02D06CB109D02AE018499F
:10B61000304612F0F7FD18B1BBF1000F22D1B9E7A7
:10B62000BBF1000F1ED11349019812F0EBFD20B9B8
:10B630001149019812F0E6FDA0B1002000900190A0
:10B6400033462A4603A902A814F002F8002804D0C1
:10B650000399CAF800101CB1022004B0BDE8F08DB7
:10B660000120FAE70020F8E7EDB40008BCC50208A5
:10B67000D4C60208C8C50208D4C5020810B5FEF732
:10B6800016FA016919B100220261884701E0406899
:10B690008047FEF793F8FEF73DB9000010B5029C15
:10B6A00031B101290DD003290BD004290BD108E0B9
:10B6B0004BB90F2A07D800EB8200216841600020B7
:10B6C00010BD012010BD022010BD10B5029C31B18B
:10B6D00001290DD003290BD004290BD108E04BB967
:10B6E0000F2A07D800EB820040682060002010BDC0
:10B6F000012010BD022010BD2DE9F04DC0B09846CC
:10B70000044631B1012918D0032979D0042979D10F
:10B7100076E0B8F1000F75D190B2231D00F400520D
:10B72000A16B05E0C50701D020C91D6040081B1DA5
:10B730000028F7D1F2BBA1635EE0150C96B2102D84
:10B7400001D2012000E000208246A819102801D96A
:10B75000012700E00027B8F1010F03D0B8F1050F71
:10B7600050D101E03FBB01E020284BD84FF0000B47
:10B77000BAF1000F08D02078012805D184F800B074
:10B7800004F1480080EC200B47B16078012805D116
:10B7900084F801B004F1C800C0EC200BBAF1000F2E
:10B7A00002D0684680EC200B20A883460FB1C0EC85
:10B7B000200B01E020E025E06B46A06B08E001468D
:10B7C00003EBC502D1E900C1C2E900C108306D1C1C
:10B7D000761EF4D24146B8F1010F00D0002100EBF3
:10B7E0008100A063BAF1000F02D0184690EC200B44
:10B7F00017B15846D0EC200B002040B0BDE8F08DCA
:10B800000120FAE70220F8E710B50468904801F13A
:10B810000802436803444FF0FF30934204D013689A
:10B8200043F31E03134400E003460A6842F31E027A
:10B830001144A14202D89C4201D3012010BD002036
:10B8400010BD33B50446824881B0824D016842681C
:10B8500001441044401AC21002980823801E02902E
:10B8600002A8009500F0A1FD7B49002370B1026899
:10B8700042F31E020244A2644268012A09D0002A4F
:10B880000ADA001DE064012020650BE004226361F8
:10B8900015E00222636112E042F31E02001D104413
:10B8A000C4E91303E26C1068002815DAC0F30360E2
:10B8B00050B101280AD002280CD001226361204631
:10B8C000FCF7C4FD09203EBD644800E064486061A7
:10B8D00000203EBD6348FAE740F31E001044F6E73F
:10B8E0000C4605462846216CFFF7ABFF50B9206C8B
:10B8F00028616B692246294601209847072803D012
:10B900000828EFD0FDF75AFF201DFCF7ADFDF0B57C
:10B910000446C068D3B00E46012768B35820FCF730
:10B9200011FE05002AD0142204F10C0105F10C00CF
:10B93000FDF733F9182204F1200105F12000FDF78D
:10B940002CF904F1380005F1380C0FC88CE80F0011
:10B95000E560F06B30644022311D01A8FDF71DF950
:10B960008DF800708DF8017012AF32AD204610993D
:10B97000FFF767FFD0B910E0E760EAE70522364934
:10B980002046FCF763FD05E09DF8010010B928464C
:10B99000D0EC200B53B00920F0BD63696A46214604
:10B9A00000209847062809D00828DFD09DF800001D
:10B9B0000028E9D1384690EC200BE5E79DF800001F
:10B9C00010B9384690EC200B9DF8010010B92846BC
:10B9D000D0EC200B31462046FFF782FF0546006978
:10B9E00008640C460A466B692946022098470728D6
:10B9F00003D0082804D0FDF7E1FE201DFCF734FD3C
:10BA000021462846FFF76CFF70B5C1680546D1B1E5
:10BA100001291AD00C46142205F10C000C31FDF757
:10BA2000BCF8182204F1200105F12000FDF7B5F85B
:10BA300004F1380038350FC885E80F002046BDE80E
:10BA40007040FCF7AEBDFDF7B9FE0020E86070BDA8
:10BA5000A884000809B80008010000FFC58E00088E
:10BA6000CB8E00080000000070477546FEF74EFBC5
:10BA7000AE4605006946534620F00700854618B0DB
:10BA800020B5FCF731FDBDE820404FF000064FF037
:10BA900000074FF000084FF0000B21F00701AC4603
:10BAA000ACE8C009ACE8C009ACE8C009ACE8C00922
:10BAB0008D4670472DE9F0411F4604460326016874
:10BAC000072A01F4006004DB08B116A505E016A5FD
:10BAD00003E008B115A500E015A521F010002060D5
:10BAE000A069C01EA0610FB1401EA0612046FDF7F5
:10BAF0005CFA4FB1D4E9012138469047206A401CD6
:10BB00002062C01C206206E0206AFAE7D4E9012125
:10BB100015F8010B9047761EF8D22046FDF75BFA28
:10BB2000BDE8F0814E414E006E616E00494E460008
:10BB3000696E66002DE9FF4F06468BB00878FF2836
:10BB400006D0491C2D2805D000244FF0000908E03C
:10BB500000200CE00124F8E709EB8903491C00EB05
:10BB600043090878FF28F7D114B1C9F100008146D4
:10BB7000107800252C46AA4629462D2801D02B28CE
:10BB800004D1521C2D2813D0002082468B461078F9
:10BB9000FF280FD04FF0000C0A21521CA5FB0178A2
:10BBA00004FB018105FB0C11C5194BEB0104EEE709
:10BBB0000120EAE7002108464FF00000BAF1000F2B
:10BBC00002D000EB80004008C0F38157012F01DD57
:10BBD0004FF0FF370E9955EA040009EB01080BD02E
:10BBE0004FF0020918F5FA7F16DA4FEACA70002FF3
:10BBF000706008DD012007E04FEACA70C6E900B0B6
:10BC00000FB0BDE8F08F00203060FDF771F9C0F88B
:10BC100000901821084616E0B8F5FA7F18DD002FCD
:10BC200002DAF748784401E0F6487844D0E9001099
:10BC3000C6E9001040EACA707060FDF759F9C0F813
:10BC40000090142108460FB0BDE8F04F1CF069BE0B
:10BC5000002108464FF00000B8F10001099002DA17
:10BC6000C7F1000200E03A4601DAC8F1000106A877
:10BC700000F0ECF906AB93E8070003AB83E807009C
:10BC800044F23E005BEA04010090584604D144F2BD
:10BC90001E012C465D460091210C0904014306D18A
:10BCA0000099240444EA15442D041039009104F04D
:10BCB0007F41014306D10099240244EA15642D0214
:10BCC0000839009104F07041014306D10099240124
:10BCD00044EA15742D01091F009104F0404101430D
:10BCE00006D10099A40044EA9574AD00891E009124
:10BCF00004F00041084304D100986D196441401ECE
:10BD000000904FF001033A466846B8F1000FCDE9C4
:10BD1000014503A902DD01F032F901E001F005F966
:10BD2000BAF1000F04460D4601D084F00044002112
:10BD300008464FF00000099940F2FF77484010F0A4
:10BD40000C0F07D124F00040284303D0C4F30A505D
:10BD5000B84212D1FDF7CCF8C0F80090C4F30A50F5
:10BD6000B8420AD1A8487844D0E90010C6E90010CA
:10BD700004F000410843706042E7C6E900543FE721
:10BD80002DE9FF4F1F464FF0000A4FF0FF384546A0
:10BD900091B0D7E90146CDF83CA0FDF79DF8C06809
:10BDA0000168405C1090B96912986D1C8847396A27
:10BDB000814688470028F6D1B9F1FF3F0AD0002E0E
:10BDC00024F4D06411DDB9F12B0F08D0B9F12D0F97
:10BDD0000BD102E0404615B013E744F48064B96922
:10BDE00012986D1C8847761E8146600504A901D50E
:10BDF0002D2000E02B20002E01F1010B0DF1300869
:10BE00008DF810003FDDB9F1690F08D0B9F1490F85
:10BE100005D0B9F16E0F02D0B9F14E0F1CD13B46DF
:10BE200001A8009580E85002DDE912126FF00200CF
:10BE30001CF0E2FDC11CCED10EE0B96912986D1C58
:10BE4000884781461398761E44F4007405600F9865
:10BE5000401C002E0F9016DDB9F1300FEDD0B9F176
:10BE6000780F02D0B9F1580F0DD10F9801280AD1DF
:10BE70003B46CDE90054DDE91212001F02961CF08A
:10BE8000B9FDC11CA7D1109989453ED144F0800469
:10BE900006E01399681CAAF1010A44F400740860D2
:10BEA000B9696D1C1298761E884730288146F0D0FB
:10BEB0002BE01099894505D1200603D4761E44F065
:10BEC000800418E0484615F0BFF908B3761E0DF15E
:10BED00023018B4544F4007408D2A9F130000BF81B
:10BEE000010B200607D5AAF1010003E0200602D4C9
:10BEF0000AF101008246A00502D51399681C08606A
:10BF0000B96912986D1C88478146002ED1DC53E038
:10BF1000002E51DDB9F1650F02D0B9F1450F4BD1BB
:10BF2000A00549D5B9696D1C1298761E24F4407499
:10BF30008847002E81460CDD2B2804D0B9F12D0F47
:10BF400007D144F48074B96912986D1C8847761E35
:10BF50008146E00501D52D2100E02B2108F8011BC9
:10BF6000CDF8008021E0761E0DF13901884544F4BA
:10BF700000740CD2A9F1300010F0FF0088F8000026
:10BF800002D10099884509D908F1010806E0E005C9
:10BF900001D51E4801E042F20F708246B96912983D
:10BFA0006D1C8847814613980560002E04DD4846C5
:10BFB00015F04AF90028D6D1F96912988847FF2070
:10BFC00053468BF8000088F8000000200A900B9080
:10BFD00004AA0CA90AA8FFF7ADFDA00502D46FF0D2
:10BFE0000100F8E614F0240F12D0E0071CD13868E5
:10BFF000DDE90A12031D3B600068C0E9001213E08E
:10C00000801302007213020036120200F1D8FFFF03
:10C010000AA9684614F030FEE00705D13868009A96
:10C02000011D3960006802602846D4E610B508E0BA
:10C0300030F8024B9C4204D10AB1002010BD01200F
:10C0400010BD491EF4D2104610BD00002DE9F04786
:10C05000814616468AB0354878440DC88DE80D00F3
:10C0600032487844801C03AC0DC884E80D0041F6CA
:10C070009B300844372190FBF1F290FBF1F5A5F1DC
:10C08000800501FB12041B3C02D56442012000E044
:10C090000020DFF898A080460027FA44AAF1BE0AE3
:10C0A0000EE0E0070AD03246684607EB470101235D
:10C0B0000AEB810100F04EFF8DE8070064107F1C41
:10C0C000002CEED1194F7F44AE3F19E0E80715D0A0
:10C0D00007EB04100DF1180A90E80E008AE80E0034
:10C0E000C068F04201D1981908903246012306A990
:10C0F00003A800F02FFF03AB83E807006D10641C5A
:10C10000002DE3D14FF0010332466946B8F1000F2C
:10C1100003A802D000F0F4FE01E000F01BFFC9E923
:10C120000001C9F808200AB0BDE8F0873005020018
:10C1300010B50446FCF7D0FED0E902121068104496
:10C1400044F8100B5068104444F80C0C90681044EC
:10C1500044F8080C8868084444F8040CC86808448B
:10C16000206008690844606048690844A0608869E4
:10C170000844E060C86908442061086A08446061B6
:10C1800008782076487860768878A076C878E07657
:10C1900008792077487960778879A077C879E0773F
:10C1A00010BD000070B50646484231EA00000FD0CD
:10C1B0002A20741C00253070FCF78EFE03460022F6
:10C1C00053F82500010F000109292BD957312AE026
:10C1D000042913D004DC012908D0022904D109E084
:10C1E00008290FD0102911D0002070BDFCF774FE73
:10C1F00000680EE0FCF770FE40680AE0FCF76CFE99
:10C20000806806E0FCF768FEC06802E0FCF764FEA8
:10C21000006928B120F0030050F8041C084470BDE8
:10C220004CA070BD3031521C082A04F8011BC9D340
:10C230006D1C052DC3DB00202070304670BD09B198
:10C240004B0901D00020704722B113782A2B02D06D
:10C2500000F034B8A6E7AFF300802DE9F0410F46B7
:10C260008046541C00250026314614F8010BA0F12D
:10C270003002092A03D9A0F16103052B16D8392809
:10C2800001D8104600E05738491C082940EA061634
:10C29000EBD30120A840384203D0FCF71DFE40F844
:10C2A00025606D1C052DDEDB207810B10020BDE877
:10C2B000F08139464046BDE8F04173E72DE9F04191
:10C2C0000C460646154688070AD51146224878448A
:10C2D0001AF050FF071EEAD0FCF7FEFD7F1C4760F6
:10C2E000E0070AD029461C4878441A381AF06EFF35
:10C2F000071EDCD0FCF7F0FD076060070AD5294671
:10C300001548784434381AF077FF071ECFD0FCF771
:10C31000E3FD876020070AD529460F4878444E3848
:10C320001AF03EFF071EC2D0FCF7D6FDC760E0063C
:10C330000AD52946084878446838AFF30080051EBE
:10C34000B5D0FCF7C9FD056121463046BDE8F04196
:10C3500028E7ACE743000000260E020070B5164641
:10C360000C460546FCF7D2F8036893F80101012852
:10C3700004D0185D68B101202C8070BDD3F8030192
:10C380003246214603F2031303442846BDE87040B9
:10C3900018474FF0FF3070BD10B50446AFF3008072
:10C3A0002046BDE81040FBF7C3BF2DE9F047984693
:10C3B00014460F468246DDF8209094B1012C0BD034
:10C3C0004A465046650805FB0876314690470028E6
:10C3D0000CD00DDA2C46F0E74A46394650469047D5
:10C3E00010B10020BDE8F0873846FBE73046F9E79A
:10C3F000641B641E06EB0807DFE7002801D0FDF789
:10C400007FBE704710B5002102A000F053F8012054
:10C4100010BD0000534947414252543A2041626ED8
:10C420006F726D616C207465726D696E6174696F95
:10C430006E00000010B5012805D0002103A000F017
:10C4400039F8012010BD09A1F8E70000534947520F
:10C45000544D454D3A204F7574206F6620686561D4
:10C4600070206D656D6F7279000000003A2048659C
:10C470006170206D656D6F727920636F7272757077
:10C480007465640038B5684611F0E4FE0420FEF7D8
:10C49000DFFF694611F0D6FE0446684611F0E9FE5A
:10C4A000024A03492046FFF742F8000073E2010800
:10C4B0001CC6020870B505460C460A2000E06D1C3B
:10C4C00000F011F835B128780028F8D102E0641C9A
:10C4D00000F009F814B120780028F8D1BDE87040C8
:10C4E0000A20AFF3008008B569468DF800000320EC
:10C4F000ABBE08BD2DE9FF4F1F464FF03C0987B08A
:10C500004FF00042DDE9141001F10108DDF858A0F8
:10C5100002EA4050039000200590834605460446F9
:10C520000490B969461E08988847AAF1010A02904A
:10C53000BAF1000F3BDD02982E2815D01021FDF72F
:10C540001FF800282EDB4FF0010B0599014317D08F
:10C55000B9F1000F0BDB4A46C11700F0F5F90543AE
:10C560000C43A9F1040905E0012004900BE008B197
:10C5700045F0010501200590049820B9361D02E020
:10C58000049800B1361FB969089808F10108884776
:10C59000BBF1000FAAF1010A0290C9D00999C1F8B4
:10C5A0000080C5E70298702808D0502806D0F969A5
:10C5B00008988847BBF1000F14D04FE0002002908C
:10C5C0000120BBF1000F049009D0B969089808F167
:10C5D00001088847AAF10109B9F1000F07DCF969E0
:10C5E000089888476FF001000BB0BDE8F08F2B284A
:10C5F00004D02D280CD14FF0FF300490B969089871
:10C6000008F101088847A9F10109B9F1000FE6DD39
:10C61000411CE4D00A21FCF7B3FF0028DFDB0299BC
:10C6200008F1010801EB810100EB41000290B969BA
:10C63000089888470A21FCF7A3FF099AA9F1010984
:10C64000B9F1000FC2F8008001DD0028E7DAF969CE
:10C65000089888470499029800FB016655EA04008F
:10C6600004D004F04041090002D006E0039898E0AD
:10C67000A40044EA9574AD00B61E04F00041080021
:10C6800002D16D196441761E159810F0240F03D065
:10C690004FF00B095C4803E04FF028096FF07D0074
:10C6A0008246564507DAAAEB06018944B9F1410FE3
:10C6B00001DD4FF0410901200021A9F1010200F044
:10C6C00043F9024628400B462140084301D001218E
:10C6D00000E00021501E029143F1FF31284021402B
:10C6E000084301D0012000E000200299834651EA6E
:10C6F0000B014FD0002108464FF00000039900F4D1
:10C70000400039B100EB80004FF4400100EBD070E5
:10C7100001EA60008015012802DD4FF0FF3000E0E3
:10C7200013D0401C36D0029860B3BBF1000F0CD17F
:10C730004A460120002100F007F928402140084323
:10C7400001D0012000E00020E0B101204A46002194
:10C7500000F0FAF8034640190A4661412D1A8C414F
:10C7600011D3B9F1400F09DD159810F0240F02D054
:10C77000AAF1340603E0AAF1170600E0761C0025B2
:10C780004FF0004406E05B1E42F1FF3220EA030551
:10C7900021EA0204CAF10100B04206DA1B490398FB
:10C7A00008430190002000900EE0039AC4F3D321C7
:10C7B000E80A0A43164940EA44500A433146CDE9A3
:10C7C0000002684614F086FC159810F0240F0BD078
:10C7D0001598C00715D13868DDE90012031D3B60CC
:10C7E0000068C0E900120CE002A8694614F044FA9F
:10C7F0001598C00705D13868029A011D3960006894
:10C8000002604046F0E6000002FCFFFF0000F07FFF
:10C810000000F03F2DE9FF4F92461D4685B04FF0D6
:10C820000041DDE9124BDDE914727F1E01EA4B5035
:10C83000414940F0FF4940EA0108002122F0200070
:10C840004928049102D04E2828D04CE03BA0012674
:10C8500007C88DE80700A9690698641C88477F1EF1
:10C86000014606D41DF8060018B121F020018142CE
:10C870000BD0E96906988847032E34D0082E32D0B1
:10C880006FF0010009B0BDE8F08F761C032E01D0D7
:10C89000082EE0D1601CCAF80000DCE7A969069800
:10C8A000641C88477F1E2AD420F02000412826D10E
:10C8B000A9690698641C88477F1E20D420F02000B8
:10C8C0004E281CD1A9690698641C88477F1E48F42D
:10C8D000002849F48009CAF8004001D4282806D06D
:10C8E000E969069888475FEACB7012D022E0A9690F
:10C8F0000698641C88477F1E01D4002803DAE96982
:10C9000006988847BCE72928F1D1641CCAF8004082
:10C91000E9E71BF0240F07D028680499031D2B605A
:10C920000068C0E9001805E02868021D2A60006858
:10C93000C0F800902046A5E70000F07F494E464928
:10C940004E49545900000000B2F120030AD5C2F14B
:10C95000200301FA02F120FA03F300FA02F041EA9F
:10C960000301704700FA03F14FF000007047FCF735
:10C9700022FAFCF720FAFBF759FDFCF71CFAFBF74B
:10C9800055FD5FEA400C08BF91F0000F4FEA8C2381
:10C990004FEAC12243EA51514FEA1C5018BF00F53B
:10C9A000F0404FEA300018BF41F000415FEA6C5C94
:10C9B00000F02980BCF1FF3F08BF40F08040704785
:10C9C000130C06BF12044FF0100C4FF0000C130EA6
:10C9D00004BF12020CF1080C130F04BF12010CF17A
:10C9E000040C930F04BF92000CF1020CD30F04BF90
:10C9F00052000CF1010C11464FF00002A0F11F0093
:10CA0000A0EB0C00704711F0004F08BF704731F0E9
:10CA100000413FF4D5AF0B0C06BF09044FF0100CDA
:10CA20004FF0000C0B0E04BF09020CF1080C0B0FA9
:10CA300004BF09010CF1040C8B0F04BF89000CF139
:10CA4000020CCB0F04BF49000CF1010CCCF1200308
:10CA5000A0EB0C0022FA03F302FA0CF241EA030104
:10CA600000F10100704720F07F4C80EA030023F0C2
:10CA70007F47ACEB070303F57C5300F0004003F164
:10CA8000FF032DE980494FEA154B09B44FEA1443DF
:10CA900025EA0B4E24EA03480FF2042606EB13277F
:10CAA00049083E785FEA320203FB0667C7F50007D4
:10CAB00007FB06F64FEA54374FEAD64606F1020660
:10CAC00007FB066CCCF1005C4FEA1C472CEA074CD4
:10CAD00007FB06F40CFB06F504EB15464FEA961629
:10CAE00034BF00204FF000404FEAD13706FB07FC6F
:10CAF0004FEA1C4C0CFB0BF7D21B03FB0CF761EB52
:10CB000007010CFB0EF7B0EB074072EB17420CFB72
:10CB100008F734BFA2EB0742B2EB074261EB1741C3
:10CB20004FEA0C444FEA910706FB07FC4FEA1C4C06
:10CB30000CFB0BF7B0EBC74072EB573203FB0CF763
:10CB400034BFA2EBC742B2EBC74261EB57310CFBDB
:10CB50000EF7B0EBC70072EB57720CFB08F734BF4F
:10CB6000A2EBC702B2EBC70261EB5771039F4FEA1A
:10CB7000816141EA921104EBCC044FEAD1374FEACC
:10CB8000826206FB07FC42EA90124FEA80604FEA9D
:10CB90001C4C0CFB0BF7D21B03FB0CF761EB0701E2
:10CBA0000CFB0EF7B0EB074072EB17420CFB08F7DB
:10CBB00034BFA2EB0742B2EB074261EB17414FEAE9
:10CBC0008C554FEA910704EB9C2406FB07FC4FEAC7
:10CBD0001C4C0CFB0BF7B0EBC74072EB573203FB5E
:10CBE0000CF734BFA2EBC742B2EBC74261EB57313F
:10CBF0000CFB0EF7B0EBC70072EB57720CFB08F79B
:10CC000034BFA2EBC702B2EBC70261EB577115EB61
:10CC10004C254FEA816141EA92114FEA82624FEA64
:10CC2000D13742EA901206FB07FC44F100044FEAB8
:10CC300080604FEA1C4C0CFB0BF7D21B03FB0CF77C
:10CC400061EB07010CFB0EF7B0EB074072EB1742EC
:10CC50000CFB08F734BFA2EB0742B2EB074261EBD3
:10CC6000174115EB1C154FEA813141EA92414FEA19
:10CC7000823242EA90424FEA80304FEA0C7644F129
:10CC8000000448EA03434EEA0B484FF0000EB2EBB3
:10CC9000080C71EB030724BF624639464EEB0E0EBB
:10CCA0004FF0000B0018524149414BEB0B0BB2EB1C
:10CCB000080C71EB03077BF1000B24BF6246394679
:10CCC0004EEB0E0E4FF0000B0018524149414BEB5A
:10CCD0000B0BB2EB080C71EB03077BF1000B24BFCD
:10CCE000624639464EEB0E0E51EA020718BF46F077
:10CCF000010616EB0E7655F1000254F1000103D542
:10CD0000BDE88901BDE80088BDE88901BDE80048AB
:10CD1000B619524141EB0101A3F101037047808034
:10CD20007F7E7D7C7B7A7978777676757473727185
:10CD300071706F6E6E6D6C6C6B6A6A69686867663D
:10CD400066656464636362616160605F5F5E5E5DCF
:10CD50005D5C5C5B5B5A5A59595858575756565543
:10CD600055555454535352525251515050504F4FA5
:10CD70004F4E4E4D4D4D4C4C4C4B4B4B4A4A4A49F5
:10CD80004949484848474747474646464545454438
:10CD900044444443434343424242424141410000F0
:10CDA00046EA0646A3F570534FEA164646EA42564F
:10CDB0004FEAD22242EA415210B54FEAD121A3F103
:10CDC000010300F02FF820F0004000F1020C00F009
:10CDD000004701EB00501146BCF5006F40EA070028
:10CDE00000D210BDBAF1000F0AD01CB503B44FF049
:10CDF00004004FF004014FF000000FBCBDE81040EC
:10CE00004FF00001BBF1010FB9BF04484FF0FF31F3
:10CE10000348002140EA070010BD00BFFFFFEF7F7D
:10CE20000000F07F002B9C4630D477002BD01CB53F
:10CE30004FEA370703B44FF010004FF01001BAF17A
:10CE4000000F06D0BCF1000FDCBF40F0080040F03E
:10CE500008014FF000000FBCBDE810400BF1010BC2
:10CE6000BBF1010F08BF5FEA170722BF12F10102F1
:10CE700011F101014FF0004143F1000300F00040C7
:10CE800043EA00007047F9D35708D0E746EA064660
:10CE900013F1400F4FEA16461FDD13F1200FDFBFDD
:10CEA00016430A46002120335B42BED0C3F120075F
:10CEB00046EA064602FA07F74FEA164646EA07062A
:10CEC000C3F1200722FA03F201FA07F721FA03F16E
:10CED0004FF0000342EA0702A7E746EA020646EAE5
:10CEE00006464FEA164646EA0106BCBF46EA064633
:10CEF000360C4FF000034FF000024FF0000194E7B2
:10CF00002DE9804C9A46934670B491E8380007C8E2
:10CF100031EA400C48BF34EA430C03D5FFF7A3FDC8
:10CF2000FFF780FFF0BCBDE8008C2DE9804C9A46ED
:10CF3000934670B491E8380007C831EA400C48BF06
:10CF400034EA430C03D5FFF78EFDFFF729FFF0BC51
:10CF5000BDE8008C2DE9804C9A46934670B491E868
:10CF6000380007C810F0804F08BF13F0804F03D17E
:10CF700000F01AF8FFF756FFF0BCBDE8008C2DE971
:10CF8000804C9A46934670B491E8380007C810F078
:10CF9000804F08BF13F0804F03D100F005F8FFF772
:10CFA000FFFEF0BCBDE8008C20F07F4780EA030064
:10CFB00023F07F4C07EB0C03A3F57C5300F00040FB
:10CFC000A3F1FE0392F0000F00F0B38095F0000F84
:10CFD00000F077802DE901494FEA11404FEA1446ED
:10CFE00021EA004800FB06FC24EA064708FB06F697
:10CFF00007FB08F800FB07F718EB06484CEB164C4C
:10D000004FEA124B18EB07484FEA15464CEB174016
:10D0100022EA0B4E0BFB06FC25EA06470EFB06F642
:10D0200007FB0EFE0BFB07F71EEB064E4CEB164CF8
:10D030004FF000061EEB074E4CEB174B18EB0B089E
:10D0400040F1000018EB0E0B58EB000840F1000017
:10D050008F1A4FF000013CBFC943661B14BFB5EBEC
:10D06000040C00213CBFC943F61B4FEA17444EEAAB
:10D070008E0E27EA04454FEA1C4704FB07622CEAA0
:10D08000074C05FB07F70CFB05F604FB0CFC16EB45
:10D09000074642EB174216EB0C4642EB1C421BEBD9
:10D0A000060658EB0202414146EA9E0601D5BDE85C
:10D0B0000189B619524141EB0101A3F10103BDE819
:10D0C00001894FEA14454FEA114724EA054621EA4F
:10D0D000074C05FB07F406FB07F70CFB06F105FB05
:10D0E0000CFC11EB074144EB17444FEA124711EBDC
:10D0F0000C4144EB1C4422EA074C05FB07F206FBFB
:10D1000007F70CFB06F605FB0CFC16EB074642EB9B
:10D11000174216EB0C4642EB1C456A1854F100010D
:10D1200048BF7047B619524141EB0101A3F1010319
:10D13000704795F0000F37D04FEA11424FEA14477D
:10D1400021EA024624EA074C02FB07F106FB07F737
:10D150000CFB06F402FB0CFC14EB074441EB1741FB
:10D160004FEA154714EB0C4441EB1C4125EA074CF0
:10D1700002FB07F506FB07F70CFB06F602FB0CFCAF
:10D1800016EB074645EB174516EB0C4645EB1C42E4
:10D19000121951F1000148BF7047B619524141EBD5
:10D1A0000101A3F1010370474FEA14454FEA11470B
:10D1B00024EA054621EA074C05FB07F106FB07F7C1
:10D1C0000CFB06F24FF0000605FB0CFC12EB0742CD
:10D1D00041EB174112EB0C4251EB1C4148BF704729
:10D1E000921841EB0101A3F10103704715230422BA
:10D1F0000149024812F0E5B9477A0208E823012004
:10D2000038B5044668461AF048FA014620461AF036
:10D21000F3FB38BD10B50146806B026C12F0500F65
:10D2200005D0806BC26CBDE8104008461047016C09
:10D2300041F40071016401688A6812F0405F17D1FF
:10D240008269AAB9CA6A12F4700F02D08A685205BC
:10D250000ED44A6822F020024A60016C21F48071E9
:10D260000164016CC90403D4016C41F00101016443
:10D2700000F0EEFC10BD10B5806B40210164416CE4
:10D2800041F00401416400F027FD10BD10B5806B32
:10D2900000F0F6FC10BD0000454910B54A6822F4C4
:10D2A00040324A604A6843681A434A6001684A68E3
:10D2B00022F480724A6001684A68036942EA0322E4
:10D2C0004A6001684A6822F040724A6001684A6810
:10D2D00083681A434A6001688A6822F400628A609F
:10D2E00001688A68C3681A438A60816A6FF0706255
:10D2F000D14201688A6822F070628A6001688A6897
:10D300000CD0836A1A438A6001688A6822F040520E
:10D310008A6001688A68C36A1A4301E022F04052B9
:10D320008A6001688A6822F002028A6001688A685D
:10D33000836942EA43028A60016A002901684A68F7
:10D340000FD042F400624A6001684A6822F46042E9
:10D350004A6001684A68174C436A04EB43331A4336
:10D3600001E022F400624A600168CA6A22F4700295
:10D37000CA620168CA6A838B0F4C04EB03531A43D9
:10D38000CA6201688A6822F400728A6001688A6849
:10D39000036B42EA43228A6001688A6822F4806251
:10D3A0008A6001688A68406942EA8020886010BD0E
:10D3B0000023014000E0FFFF0000F0FFFEE7000057
:10D3C000014801F044B800004C060120014801F07A
:10D3D0003EB800004C060120014801F038B80000BA
:10D3E0004C0601200020704710B5034C206813F054
:10D3F000F4FE2060002010BD1402002010B50022B1
:10D400000849094808F036FA06490748443908F03F
:10D410002BFA8021084613F0F3FE0449086000202F
:10D4200010BD000068230120101B01201402002001
:10D4300070B50C4605460146074808F015FA06483F
:10D4400008F0F6F90548006820B12268006829460E
:10D4500013F08FFE002070BD101B0120140200206D
:10D46000094A10B5D2F81822D2F814220AB10120C4
:10D4700010BD0A460146044808F0FCF9BDE810401A
:10D48000014808F037BA0000101B012010B5846B6A
:10D49000204601F0EDFA0120207110BD10B5846B1B
:10D4A000204601F0C1FA0120207110BD10B5846B37
:10D4B000206940F004002061204601F0DBFA0120E1
:10D4C000207110BD10B5846B206940F0040020610C
:10D4D000204601F0ABFA0120207110BD10B5806B21
:10D4E00001F0C7FA10BD10B5806B01F09EFA10BDB7
:10D4F000014801F071BC0000501A0120014801F000
:10D500006BBC0000B01A0120014801F065BC0000AE
:10D5100070180120014801F05FBC0000D018012004
:10D52000014801F059BC0000B0170120014801F08A
:10D5300053BC000030190120014801F04DBC00002F
:10D5400010180120014801F047BC0000901901208B
:10D55000014801F041BC0000F019012001681823C6
:10D56000CAB2103AB2FBF3F2054B6FF30901032A7A
:10D570009B5CC36500D9091D8165084670470000A2
:10D580007095020810B5014600208B698A6A4FF039
:10D59000C07453B1B3F5005F15D072B1012A0CD03D
:10D5A000022A0AD0032A09D104E01AB1012A06D0BE
:10D5B000022A03D1C96AC90100D5012010BDC96A78
:10D5C000A142FAD010BD002AF7D0012AF2D0022AD7
:10D5D000F3D0032AF3D010BD30B50468256825F4D4
:10D5E00080252560046863608368402B036803D04E
:10D5F00099600068C26030BD9A600068C16030BD4B
:10D600007047FEE70148407A704700006004002040
:10D61000002200F001B8000030B50E4B0546012095
:10D620005C7A002C14D1587A1C54587A03EB800091
:10D6300045605D7A03F108002A54587A421C5A72F8
:10D64000303008703A2048702F208870CC7000204D
:10D6500030BD000060040020002100F001B800008F
:10D660000B4910B502464B7A0120002B0FD01278DF
:10D67000303AD2B201EB82035C68002C07D0002064
:10D680000A4458601072487A401E4872002010BD4B
:10D690006004002030B587B00C46054601F054FF09
:10D6A0000020009002200295CDE9034005A96846BC
:10D6B00001F0D0FD044601F0BBFE07B0204630BDAE
:10D6C000002229B101291AD002291BD04FF440723F
:10D6D0000E490B6823F440730B600B6813430B6017
:10D6E0000A6822F0F8020A600A68022303EBC0000D
:10D6F00002430A60086840F48030086070474FF4C5
:10D700008072E5E74FF40072E2E70000103C02404F
:10D710001348016889050FD5016821F40071016083
:10D72000016841F400610160016821F40061016059
:10D73000016841F400710160016849050FD5016875
:10D7400021F480610160016841F480510160016849
:10D7500021F480510160016841F4806101607047EB
:10D76000003C024008490A6822F440720A600A68D4
:10D7700042F004020A600A684FF4803343EA002052
:10D7800002430A6070470000103C024070B50C462E
:10D790000A490546F22008602868A0420CD001F032
:10D7A000D3FE224600232946022001F059FE0646F8
:10D7B0000228F6D001F03CFE304670BD0C3C024021
:10D7C000064A136823F440731360136813601368E8
:10D7D00043F001031360017070470000103C0240E9
:10D7E000084910B50C6824F440740C600C6844F4CB
:10D7F00040740C600C6844F001040C6002604360EB
:10D8000010BD0000103C0240074A136823F4407327
:10D810001360136843F480731360136843F00103CB
:10D820001360018070470000103C0240074A1368F3
:10D8300023F440731360136843F400731360136898
:10D8400043F001031360016070470000103C024088
:10D8500017490868C206174805D5C26942F0100288
:10D86000C26110220A600A68920605D5C26942F0B8
:10D870000802C26120220A600A68520605D5C26900
:10D8800042F00402C26140220A600A68120605D50D
:10D89000C26942F00202C26180220A600A689207ED
:10D8A00005D5C26942F02002C261022008607047BB
:10D8B0000C3C02409C05012070B511490446002033
:10D8C000C86101F0DDFF06460E4D09E0601C07D07F
:10D8D00024B101F0D5FF801BA04201D9032070BD07
:10D8E0002868C003F2D42868C00701D0012028604E
:10D8F000286810F0F200F2D0FFF7AAFF012070BDF7
:10D900009C0501200C3C024051B18200A2F1C042B2
:10D91000126842F001038200A2F1C042136009E0E4
:10D920008200A2F1C0421268034B1A408300A3F1A7
:10D93000C0431A6070470000FEFF0F00D0E90112DB
:10D940001143C2681143026911434269114382695C
:10D950001143C2691143026A1143426A1143826A48
:10D960001143C26A1143026B114302689200A2F193
:10D97000C0421160816808290BD101688900A1F1BA
:10D98000C041096841F0400201688900A1F1C0412D
:10D990000A60416B0968426B526841EA0211426BAE
:10D9A000926841EA0221426B928941EA0241426B4C
:10D9B000128A41EA0251426B127D41EA0261426BD6
:10D9C000926911430268521C9200A2F1C042116098
:10D9D000C16AB1F5804F1BD1816B0968826B5268B7
:10D9E00041EA0211826B926841EA0221826B128A3B
:10D9F00041EA0251826B127D41EA0261826B9269B7
:10DA0000114302689200A2F1C042C2F8041107E07B
:10DA10006FF0704201688900A1F1C041C1F8042192
:10DA20007047F0B50A4600210023002400BF3DE006
:10DA3000012505FA01F3156805EA03049C4234D177
:10DA400005684F000326BE40B543056015794E00BA
:10DA5000B5400668354305601579012D02D015796A
:10DA6000022D16D185684F000326BE40B543856060
:10DA700055794E00B5408668354385604568012676
:10DA80008E40B5434560456896798E40B6B23543C1
:10DA90004560C5684F000326BE40B543C560D579D3
:10DAA0004E00B540C6683543C560491C1029BFD338
:10DAB000F0BDF0B5002300244D07ED0E02FA05F38A
:10DAC000CE1000F1200555F826504E07F70E0F2610
:10DAD000BE40B543CF1000F1200646F82750CE10C7
